:20000000003C0120F526010039FB021039FB021039FB021039FB021039FB021039FB0210C3
:1C00200039FB021039FB021039FB021039FB021039FB021039FB021011FB021002
:20003C0038B586B004468DF805104FF6FF720120ADF80220090ADFF80859ADF800000223EA
:20005C008DF806108DF8043069462A78204618F05BF9162803D12978204618F051F907B0FB
:20007C0030BD3EB504000D461ED0DFF8D8080068224618F041F9FF2815D000200090002397
:20009C0001AA294620460DF04BFA60B99DF8040000F0F0F8C00606D59DF8040000F0EAF8EC
:2000BC0010F0040000D001203EBDFEB5164615244FF6FF7290420D4615D100208DF8040082
:2000DC00DFF87C789DF80400B97988421AD23246294600F03AF800B100249DF80400401CE5
:2000FC008DF80400EEE718F003F950B100F0FCFA40B99DF804003246294600F026F80024F0
:20011C0000E014242046FEBD7CB50D46044606214C43164600F081F8A8B900F079F890B936
:20013C009DF80700002E14BF054320EA0505E9B2814206D08DF807506A460821A0B215F06A
:20015C0029FF012076BD002076BD2DE9FC410646344606235C438846154600F05EF800283C
:20017C0053D100F055F800284FD1DFF8D477F879800017F07FF9040003D1042015F014FD16
:20019C0043E0F979E03689062246090EB0B215F0EDFE002835D1204600F058F85FEA080013
:2001BC000ED1FA799206120E0021204616F06FFB38BBFA7992000021204616F0D3FF16E0D5
:2001DC00214600F030F858B9280004D02146002000F029F810B900F036FB16E0A0F80080E7
:2001FC008178A9420DD085700DB900210180204600F02CF8F97989062246090EB0B215F064
:20021C00C9FE00F020FB012000E00020BDE8F6810622FF21684616F03ABB20346A46082195
:20023C00A0B215F0A3BE70B5DFF81437DD79002200E0521CD4B2AC4206D231F8246086421C
:20025C00F7D101EB840070BD002070BD10B50021DFF8EC260AE030F82130DB4320F8213017
:20027C0000EB8103491C9C78E4439C70D3799942F1DB10BDE0B50623584320306A46082105
:20029C0080B215F073FE10B99DF807000EBD00200EBDDFF8AC06007808210CF01DBA38B595
:2002BC000025DFF89C4619E0E069062313FB05F300EBC5022033082198B215F057FE58B1F8
:2002DC00E0690622FF2100EBC50016F04BFFE06900EBC5010022CA716D1CEDB2A1798D4209
:2002FC00E2DBE07C10B1BDE8314032E231BDF8B5DFF84C16DFF8503689791E680C460A4683
:20031C0000E02A46D5B23DB1551ED2B2324412F8017C8742F5D12C46E4B220464D1E07E0B9
:20033C001718165C7F7817541A680244401C5670A8421A68F4DBAC4204DABDE8F8400520AB
:20035C0015F028BEF1BD38B500200024DFF8F05503E0E0B200F008F8641CAA79E1B291422D
:20037C0001D20100F5D032BD2DE9F84F83465D46062313FB05F58EB005F1200701AA0821B0
:20039C00B8B215F0F3FD002874D10622FF2101A816F07DFA00286DD1DFF8A465F0798000D8
:2003BC0017F068F85FEA000904D1042015F0FCFB0A2061E01C22FF2103A816F0D3FEF279BD
:2003DC009200FF21484616F0CDFE05F123040AAA1021A0B215F0CAFD60B91022FF210AA8B3
:2003FC0016F055FA30B99DF80A0001A900F0010017F07AFF082200F042F801AA0821B8B257
:20041C0015F0C8FD8DF8000003AA05F1210000F03AF8074605F1220003AA00F034F8804697
:20043C0003AA1021A0B215F0B5FD044605F1240003AA102100F028F88246253503AA042173
:20045C00A8B248EA070715F0A5FD2743F1799DF800504AEA0707074389060BF1E0034A46FC
:20047C00090E98B215F096FD0743484616F0FAFF3D4300E0002528460FB0BDE8F08FFF219A
:20049C0001A816F06FBE1C2180B215F083BD2DE9F84187B0FF208DF80000DFF8A454A87996
:2004BC0016F0E8FF040004D1042015F07DFB0A2030E01022FF2103A816F054FEAA79FF21E7
:2004DC00204616F04FFE0622FFF7D9FF03AA1021022015F05FFD064603AA1021032015F09E
:2004FC0059FD06436A460121042015F053FD0746A9792246052015F04DFD054601AA06218E
:20051C00062015F047FD804600F09DF93E432E4348EA060008B0BDE8F081DFF82414408835
:20053C00097815F097BCF0B5A9B006460D46144617F0DEFE08B91420ABE0A42200216846D7
:20055C0016F010FEADF800600DF12607DFF8F063F078717B8DF80400B07B8DF8A000279825
:20057C0061F30000717B27908A074CBF0222002220F0020010432790CA064CBF4FF480725A
:20059C00002220F48070104327908A064CBF4FF40072002220F40070104327904A064CBFB4
:2005BC004FF48062002220F480601043279049074CBF0421002120F0040008432790F07BB8
:2005DC0002280CBF01200020787417F089FE412807DBF07B00B108209DF8991008438DF8B2
:2005FC009900707CB8B10121B974202206F188010DF1390016F0C0FD202206F1A8010DF106
:20061C00590016F0B9FD202206F1C8010DF1790016F0B2FD00E0B874307B8DF8050090B1F9
:20063C00DFF82873102207F110010DF1060016F0A3FD9DF89900082805D1102239460DF164
:20065C00160016F099FDF07A8DF8260028B11022BF490DF1270016F08FFD307948B1022D1C
:20067C0018BF032D03D1279840F002002790012100E000219DF899000143B0788DF89910F0
:20069C0000B1042001438DF899106846214617F023FE29B0F0BD2DE9FC41154615244FF608
:2006BC00FF72904288460DD10027A54EB179F8B2884216D22A464146FFF726FD00B10024AA
:2006DC007F1CF3E717F014FE50B100F00DF840B99DF804002A464146FFF716FD002400E0E4
:2006FC0014242046BDE8F681002100910023417901AA01F00101801D0CF012BF70B504461E
:20071C000D4606204543082B88B0164603D1300758BF223500D521351C220021FFF7B0FE4E
:20073C0001AA1C21A8B215F021FC80B99DF81E00C01F0A280BD29DF830000090F20801AB64
:20075C0002F0010206F00101204617F0C1FD08B070BD38B517F0B8FD0024794D0FE0E869AD
:20077C000622FF2100EBC40016F091F828B9E86900EBC401002017F0A3FD641CE4B2A879F7
:20079C008442ECDB31BD3EB50C46002501460095002301AA20460CF0C3FE38B99DF8040001
:2007BC00FFF768FDC00601D401203EBD00203EBD2DE9F041674F064638688846154603E0FB
:2007DC000189B14226D000680028F9D10C2016F051FE040019D0268184F80A800020206075
:2007FC00E07245B10821284616F088F9606018B900F029F80AE06060396811B93C6004E040
:20081C00014608680028FBD10C600CB9152018E00120E07217F050FD08B1002011E02A46B2
:20083C0041463046FFF77FFE04464548806900281CBF4368002B03D0002200213046984728
:20085C002046BDE8F081204616F00CBE38B505464048046803E02089A84204D02468002C9C
:20087C00F9D1012032BDE07A012807D100F05CF820B13348007804210BF02EFFE17A491C12
:20089C00E1722846C9B200F002F8002032BD38B5022904462A4D02D003290DD01EE042F61D
:2008BC00C921FFF7BDFB02001CBFA869002818D04368B3B105210CE042F6A621FFF7B0FBC5
:2008DC0001001CBFA96900290BD04B684BB102460421204601B0BDE830401847BDE832404C
:2008FC0000E031BD10B51B4A1468002101E0214624686CB123898342F9D1206800290CBF9F
:20091C0010600860606808B116F0ACFDFFF79BFF002010BD024604200E49096819B10B89A4
:20093C009342FAD1C87A70470A48006828B1006818B1C17A0029FAD1704700207047000081
:20095C00581D0020680F00201C36002080330020B03300202036002038B5264C049D207001
:20097C00E2712372A1716572C80016F083FDE061D8B1A279D200002116F0F4FBA07916F050
:20099C0079FD206208B9E0690DE0A2791A4D002116F0E8FBA07916F06DFD286050B9E0695D
:2009BC0016F060FD206A16F05DFDBDE83240042015F0FAB8A279002116F0D4FB04F1E800EE
:2009DC0017F076FC2178062013F068FBFFF767FC2A68A179052015F0C9FA48B1A179002038
:2009FC0004E02B680A1A521E1A54401C8842F8DB31BD00BF581D00201C3600202DE9F84F58
:200A1C00054688B0A978DFF83C67002710294FF0060A3CD8DFE811F0110092039203920341
:200A3C0092033C00CF0092039203F5021501000147039203CB020D038A036878002826D17A
:200A5C0017F032FC044617F02BFC054617F024FC8DF8000022461021022015F09BFA2A4611
:200A7C001021032015F096FA6A460121042015F091FA9DF80000012818BF032807D1012032
:200A9C0017F006FC02460621062015F083FA55E368780028FBD195F80CB06C89009000231D
:200ABC00E97801AA01F00101281D0CF039FD00284FF0010875D19DF80400FFF7DBFB8146C2
:200ADC00BBF1080FF07908BFB846800016F0D2FC050003D1042015F067F82FE370789DF8C5
:200AFC00041002280CBF0120002000905B464A462046FFF703FE1422002102A816F032FB3E
:200B1C009DF804001AFB00F0243002AA102180B215F02CFAB0B91022FF2102A815F0B7FE6E
:200B3C0080B99DF804001AFB00FA0AF1250306AA042198B215F01AFA02AA09F00101204650
:200B5C0017F0A2FBF1799DF804008906E0302A46090E80B215F00AFA98B92846FFF776FB4B
:200B7C00BA4609E005EB8000018819B18278204615F0F0FC0AF1010AF1795FFA8AF088424F
:200B9C00F0D3707A30B95FEA897003D53178204615F060F99DF80400FFF7A9FB284616F075
:200BBC0061FC7078022805D1B8F1000F02D0204611F0F4F8C2E2A888FFF794FE17F060FB39
:200BDC000028F7D1307D012808D1FFF7BCFB306A37750422002116F0C5FA17E0707D01284E
:200BFC0003D1FFF754FC777510E000240AE0306AE5B2415D012904D1E0B2FFF7B5FB316A34
:200C1C004F55641CE0B2B1798842F0D3502015F0A1FDFFF744FB91E217F04EFB00280CD03C
:200C3C00B06900281CBF0468002C07D0286900906B7B2A7B6989E81CA0477EE26889012111
:200C5C0071E26878002840F0EB80A879C10740F1E7800822002105A816F084FAA88817F04E
:200C7C0047FB04006FD0D5F81480B8F1000F27D00622002108F1110015F009FE58B3062231
:200C9C000021404615F003FEC8B998F8100000F00109BB460BF1010B88F811B0009700236C
:200CBC000022494608F111000CF03AFC00285FFA8BF002D10028EDD101E000280BD16F61C1
:200CDC00607900F001008DF81A000622A11D05A816F052FA24E0D5F81480B8F1000F1FD09E
:200CFC0098F8100000F001008DF81A00062208F1110105A816F040FA6079012805D1062288
:200D1C00A11D04F10C0016F037FA062208F11101A01D16F031FA98F8100040F002006071FD
:200D3C00A879410720794CBF40F0020000F0FD002071A879010720794CBF40F0200000F0CD
:200D5C00DF00207106E0FFF7EFFD18B1307804210BF0C2FCA9799DF81B00890801F001019A
:200D7C0008438DF81B00A97900970A074CBF0821002108438DF81B0000239DF81A1004AAD2
:200D9C0005A80CF0CDFBF0B1002400E0641CB179E0B288420AD2F069E3B20622FF2100EB1E
:200DBC00C30015F074FD0028F0D009E0DFF89823107800281DBFDFF89413086804780C4633
:200DDC008DF8104019E06869B8B19DF810001AFB00F023306A46102180B215F0C7F860B902
:200DFC001022FF21684615F052FD30B99DF81A0005A900F0010017F077FA9DF81000B17905
:200E1C00884280F0D280F079800016F033FB04001DD1042014F0C8FE0A27A888FFF762FD77
:200E3C00B06900281CBF4368002B0FD06A78A888012198476878002808D1A879C10705D50E
:200E5C00B369A8885C683A460321A0476EE19DF810001AFB00F0203005AA082180B215F083
:200E7C0099F89DF81000FFF742FAF2799200FF21204616F077F9F1799DF810008906E03047
:200E9C002246090E80B215F085F8F0699DF81030082205A900EBC30016F06EF96A6992B1CC
:200EBC00107C002302F1110100F0010017F0E4F96A6942B19DF810001AFB00F02330102199
:200EDC0080B215F067F8AA6842B19DF810001AFB00F021301C2180B215F05CF82A6942B112
:200EFC009DF810001AFB00F022301C2180B215F051F8EA68AAB19DF810001AFB00F0243072
:200F1C00102180B215F046F8E86800F110029DF810001AFB00FA0AF12503042198B215F071
:200F3C0039F8F07C08B1FFF714FCB5F80480706A4FF6FF7948B906F1160100910223844ADE
:200F5C004946012017F094F97062716A11B3FF20039002220292019707A800900DF112036C
:200F7C00F28A404605F0F4FC68B99DF812009DF8131000EB012290B228B1706A418992B2DD
:200F9C004046FFF792F8F28A706A0023494617F06BF97062204616F065FA307A0028A8881D
:200FBC007FF43CAFFFF752FC3AE7152735E7687806281BD1A88817F09BF9B8B1B17C012975
:200FDC0004D013D3032907D00CD30FE04179A8880022FFF7EDFB09E00022002140F20940D9
:200FFC0003F050FFA888052117F03AF9B06900281CBF4368002B03D06A78A888022198472A
:20101C009BE000970023E97801AA01F00101281D0CF086FA0028F3D19DF804001AFB00FA2B
:20103C000AF1250305F10C02042198B214F0B2FF83E0B06900281CBF4368002B03D0A888F1
:20105C00002200219847707810B9A88805216AE0A88817F04DF9040070D0A87AC10712D56F
:20107C00009700236179002201F00101A01D0CF057FA00281EBF60790028012803D0E8684F
:20109C00C0F3402028B1F07B022807D1A87A010704D4A888032117F0DFF84FE06179A8886E
:2010BC0005F1080227E02F7BAD88284617F020F9040042D017F000F900283ED100900023A0
:2010DC00617901AA01F00101A01D0CF029FA28BB9DF80400FFF7CEF807F00C07042F11D04A
:2010FC00082F0BD00C2F0FD100F0090109290BD0617900222846FFF75BFB1EE010F0090FD4
:20111C0002D1F5E7C107F3D501220092A37C9DF8041002462846FFF7F1FA0EE07078002862
:20113C00E6D10521284617F097F806E0FFF7FCFB18B1307804210BF0CFFA0127384609B026
:20115C00BDE8F08F581D0020853600201C360020AE9E01002DE9F84F012014F023F801285A
:20117C0016D1DFF860663078002117F071F8040004BF002014F018FD00202072201D0CF0AB
:20119C00BBF804F0B7FF050003D1812017F05CF813E30120687105F59777DFF82C06DFF829
:2011BC002C264178491C4170A879A0724020317811700BF089FF2860616D4A78206DD10636
:2011DC0019D5816C0A681179032904D00CBF0120002014F0E9FC206D816C90F86C000A6847
:2011FC0002F1080A01281CBF002014F0DDFC216D486F29683CE0C16E0A681179032904D0B0
:20121C000CBF0120002014F0CFFC206DC16E90F898000A6802F1080A01281CBF002014F05C
:20123C00C3FC216DDFF8A825D1F8A0002968DFF8A435C8609AF82660032E19D8DFE806F0D8
:20125C0002050C0F00F5B06001E000F53470C8601088F887118808E000F5355001E000F6C0
:20127C00B870C8601888F8871988A5F8741102E000F5B060C8602868DFF85C65C168DFF8E9
:20129C005C8501F59071C16006229AF80000C0F3801038700AF1020105F5947015F06CFF28
:2012BC0004220AF10E0105F1240015F065FF306895F8069000F10C0304220AF10E0103EB86
:2012DC00491015F059FF3068AB7900EB431303220AF1120103F1100015F04EFF05F12C098B
:2012FC009AF8150089F8020002220AF1160105F1300015F041FF02220AF1180105F13200A7
:20131C0015F03AFF02220AF11A0105F1340015F033FFB9F80800688402220AF11C0105F101
:20133C00360015F029FF99F80200B9F80A10400089F802000901B9F80400A9F80A10400053
:20135C00A9F8040089B2B9F806004000A9F8060003046A8C521CDB0B5A438A4201D280B234
:20137C0030B998F8000080210BF0B6F93B2131E105F12E01284616F063FF0520A881284668
:20139C0016F05AFF05220AF11E0105F1610015F0F3FE9AF82300400989F8000016F048FF78
:2013BC006882618D401AB88105F161019AF82300DFF82C7400F01F0089F80F004FF01C0A1E
:2013DC00284616F031FF616D4A78206DD1064CBF816CC16E41F62102086800210171A979B3
:2013FC0038681AFB01F142520021AB791AFB03F303445980AA791AFB02F210444160616D37
:20141C00DFF8E0034A78D1060DD5DFF8DC138A7851060AD5DFF8D423138841F20A418B42C9
:20143C0008BFDFF8CC03C5F89C01D5F89C11284688473A68A97902F10E031AFB01F1585497
:20145C00AA7938681AFB02F202440020D0733968A87901F10E021AFB00F0115C89F80D1027
:20147C00606D4178CA061DD595F8960108B914F09BFBA97938681AFB01F1014495F8960157
:20149C00421E0A74A87939681AFB00F00844002141743A68A97902F112001AFB01F1002277
:2014BC0042522BE0A97938681AFB01F10144206D90F840200A74A87939681AFB00F008445D
:2014DC00216D91F841204274206D3968AB79403001F112021AFB03F34188D15205F5CB71CD
:2014FC000078012200F0030082400A70226D92F84000800814BF0120022008713968A879D4
:20151C00DFF8F0B201F1140231681AFB00F301EB4010D050A87939681AFB00F00844B6491F
:20153C008161DBF814000078C107DBF8141009784CBF1F200F208A07DBF81410097848BF85
:20155C0040F020004A07DBF81410097848BF40F040000A073168AA7901EB421348BF40F09A
:20157C0080001872A979306800EB41120B2050723168AA7901EB42100421A04A81721078DC
:20159C00012806D13168A87901EB40120121D17207E0DBF824003168AA79407801EB42133F
:2015BC00D8723168A87901EB40121F2111763068AA7900EB421100204876A87916F030FEDA
:2015DC00AA79316852018850AA7931685201885820B90721284616F01FFEEEE08848AA79C6
:2015FC00016801EB021016F013FEA8793168844B01EB4012196801EB00105060A9793068A3
:20161C0000EB41125168C9F83C10AA7952018158C9F84410042198F800000BF05DF8616D73
:20163C004A783868D10648BF02210AD4A9791AFB01F101440A7C02F00302022A14BF04213E
:20165C000621B9F8042095F806C04FF4C8738A18698AAA615143B1FBF3F35B1C6B611AFB83
:20167C000CFCD5F800E06044DEF80CC040F6C41101FB02C2D21AA2F5A8628260AA79386856
:20169C001AFB02F283189A682B689A6000F10C03AA791AFB02F20C309B5C03F0EF038354E0
:2016BC00A8793A681AFB00F002F10C030C321B5C03F07F031354A8793A681AFB00F002F1F8
:2016DC000C030C321B5C03F0F00343F002031354AB7938681AFB03F31844427B02F0F002D9
:2016FC0042F001024273AA7938682B681AFB02F20244906818613068AB7999F802C000F1CE
:20171C001402686940005B0111FB0C0000F5F660D05095F8960104280DD13068AA7900F1CD
:20173C0014034FEA421C143053F80C20AB795B0102F56162C2503068AA7900EB4210C37CA1
:20175C0003F0F00343F00403C374DBF830003268AB79006802EB431CB9F8062042436423BE
:20177C00B2FBF3F35943A1F59661CCF81C103068A97900EB4110C27E02F0F00242F004024F
:20179C00C276A97938682A681AFB01FA00EB0A01516028460E2116F037FD1A490720087011
:2017BC00204613F02BF8AA790021204616F028FD28681549154A41618261BDE8F14F02F003
:2017DC00D7BE00BFD50F0020780E0020D70F00208E0F0020900F00209C0E0020C70F0020AD
:2017FC00980E002081010210C00C00209A0F00204DE50110D4A50100980C0020CC0F002042
:20181C00A40E0020C80F0020E9B00000020480802DE9FE4F04460020009000250CB914F0F9
:20183C00C3F904F1500841F62300D8F8007038807D8002223A737A73694620460AF0F2F87D
:20185C0008B9072051E2009901B1B860B8682061D8F80400407A12F00BFA25302076207E2F
:20187C00B873FD73D8F80400017D022904BF002014F09AF9D8F80400007D012802D13D74BC
:20189C007D7406E083280CBF0620022038742020787404F12406DFF858A4DAF83C00416915
:2018BC000868717901EB41010844B0F801207A82D8F80400417848060AD5607DC10604D53C
:2018DC00E07F40F04000E07702E040F04000607507F15C0904F1300089F80050B17E890094
:2018FC0001F0040189F80010B866607DC10656D5D8F8042051788A060CD500F0FE00607567
:20191C00D8F80400417811F0030F03D1E07F00F0FE00E077607D16F06FFCA075421C387C1E
:20193C00C0F38001002392B200F0030016F060FCA0831E20A28B02F59B7393FBF0F01E215B
:20195C0001FB1030C0B208B1C0F11E00821802F59B7262831E20A28B02F5967293B293FB75
:20197C00F0F001FB1030A283C0B208B1C0F11E008018A08380B2E27D618B521E504340187D
:20199C00608307F13005608BB43080003866062089F80300E17F41F00801E17720E040F062
:2019BC0001006075D8F804104A78510744BF40F002006075607D16F01FFCA0750023401C9B
:2019DC0082B2387CC0F3800100F0030016F010FCA083A08B00F59670A0833D6689F80350E7
:2019FC00A17D207D61F3050007F18801207508700322607D48708A70B07E800000F00400D3
:201A1C0040F003008870F27ED20002F00802104388700020C870C7F89000B08BC0F30B0056
:201A3C00B083D8F80410CA7D40EA0230B0830022617D01F0FE0120460AF0B2F901970027E3
:201A5C001EE01C2010FB07F004EB000B01991C220BF1640015F090FB0BF16C00052101716C
:201A7C007F1CA28B92000260FFB2DAF83C104A697379116803EB43031944B1F80120428189
:201A9C00E07D401E8742DCDB019F20460DF0C2FEE07D012809D013D3032808D03EBF04F1F2
:201ABC0064007860C8F818500AE07D6008E004F16400786004F18001C8F81810C8F8345024
:201ADC0041F6240038860021798607F13C05B868618B00EB8100B8630221822028706970AF
:201AFC00002194F82100E97000F03F00A870D8F80400807D012818BF022805D100F07F001C
:201B1C00401E2871697106E083280CBF062002202871202068714FF0000BDAF83C00416980
:201B3C007279086802EB42021044B0F80110E980C7F86CB0D8F80400417811F0030F20D01C
:201B5C0016F052FBF866DAF818000078C107DAF8181009784CBF1F200F208A07DAF818100F
:201B7C00097848BF40F020004A07DAF81810097848BF40F040000A0748BF40F0800089F8E5
:201B9C00140089F815B0D8F804105A4A897C01F0030189F81510B07E800000F004000143C1
:201BBC0089F81510F07EC00000F0080040F01000014389F81510107848B199F8140041F0BC
:201BDC00400100F0FE0089F8151089F81400E07F16F012FB84F82000204616F001FBE07FAA
:201BFC00C10638D5D8F8040094F820204178521C88074EBFD21EF07F12182879C0F3800134
:201C1C000023D2B200F0030016F0F2FA30801E22308800F59670C0F11E0190FBF2F21E20FC
:201C3C0000FB02113171D8F804104878810731884CBF00204FF49B704018308070803188C9
:201C5C003279B86B5218A63200EB82007867022089F8170003E0C7F874B089F817B004F14F
:201C7C003000C7F8800007F18400D8F804104A78510707D504F13802026099F8150040F01C
:201C9C00200007E01C490A685168016099F8150000F0DF0089F81500A17F94F8200060F306
:201CBC000501A17740F60B002882A5F812B0DAF83800008880007865DAF8380000880028F7
:201CDC001ABF0721297728770221697794F84500E883D8F804104878810744BF0120E883AE
:201CFC00009808B109F02CFE0020BDE8FE8F00BFD4A50100880E00206C0F00202DE9FC471F
:201D1C00D44C0F460546F80B80F006826078DFF85883B90F80F0AA81B90880F09D81F90AAD
:201D3C0080F00281390B80F0CC80380907D2F80FC0F0288227F080470FF0F2F822E215F049
:201D5C0020FE814614F0B6FC002800F0B480082015F0BEFC002840F0AE80802015F0B8FCBA
:201D7C00002840F0A88068460CF082FD012803D10098002800F09F8094F83102002840F0BB
:201D9C009A8000250126E8B215F0D8F948B1837A3BB1867290F9090006FA00F0C0B212F081
:201DBC00CDFF6D1C032DEED3032084F8200004F5C47015F0E0FD484616F00EFAD348002517
:201DDC002A460168056050F8081CD14940F8085C04F15C0014F08EFB40460068006B804789
:201DFC00A168401A010BA06AC1F1FF3282422CBF08444FF0FF30A06294F82C0020B12069EE
:201E1C00A16AB1EBC02F25D914F064FC294600B13146081C1BD0BF4840F60901018045807B
:201E3C00417B06F00F0221F00F010A434273017B05F00F0321F00F0143EA010202732946E8
:201E5C00416015F0F7FA418811F4406FFBD084F82C60A56211F022FCCE482946056002204D
:201E7C0014F0B4F9022013F0BFFB11200BF00EF8207818B96068483015F0BDFDC648007896
:201E9C0010B90E200BF002F894F82D0020B184F82D50052013F0A8FBC048606284F8205036
:201EBC00B4F9B000B4F9B210884214BF022007200DF0F2FC02E0484616F08EF927F0080746
:201EDC003AE720B1042013F08FFB00206070656812F018FF38B12846ED696FF4807100224A
:201EFC004FF00073A847E06858B140460068006B8047E2686168801AC860000BC860002686
:201F1C00E660A74904F15C00002214F0F3FA0221D4F89C0084F8201018B104F1DC0015F035
:201F3C007CFD27F4006707E715F02BFD064614F0C1FBD4F894100028894600F084800029DF
:201F5C0000F081809749042504F15C00002284F8205014F0CFFA304616F03EF904F5C4705F
:201F7C0015F009FD40460068006B8047E0604FF0010884F80180284613F04EFBD9F81000FA
:201F9C006060D9F81000416AC90803D3036A29460022984740460FF0A1FE606880F815805C
:201FBC0060680BF0EFF86568D5F808A040F60A02D01F564600F1010C00E01E46736833B14B
:201FDC0019888A4203D0884218BF8C45F5D100217160727B08F00F0322F00F021343737325
:201FFC00D9F80C201288904224D06046904221D02B8E03B3696305F13002518095F83C0002
:20201C0001F00F0320F00F00034385F83C3095F83D0008F00F0320F00F00034385F83D3030
:20203C007260707B01F00F0520F00F0045EA0001717300E0E160504615F0FCF951464046C1
:20205C0014F0C4F802E0304616F0C6F827F4806798E0C046E00F002006F0B4FDD4F89C00EA
:20207C0008B927F002078DE08C0100104E4A116841F08001116020B1042013F0B5FA00205E
:20209C00607015F07EFC8246D8F85400016804208847D0B1287DC0B1A068B0B18146D8F8F6
:2020BC0000002E69006B8047A0EB09002861000B2861B04202D280194008286140F6C4114F
:2020DC0081422CBFB0F5967F2961504616F084F812F018FE80B1EE6928466FF48071002256
:2020FC004FF00073B047D4F89400002808BF47F0020701D00EF014FF2846AD6900214FF0C6
:20211C0080630A46A84727F000573BE014100440B92101006435002015F033FCD4F8AC60F0
:20213C0066B306F1280106C90A234FF0E0450B40154008BF002B21D106F1280191E80003CA
:20215C0006F1280595E8060006F1280322EA090221EA080183E8060016F03EF8B16879B17F
:20217C00B9F1000F08BFB8F1000F09D03069B6F93010B5684B464246A84701E016F02CF87A
:20219C0027F4804727B104F1DC00394615F045FCBDE8FC870000046026A40100B1B5000016
:2021BC00E1AD0000B1660100CC2108402DE9F04FADF12C0D03F07CFDB74C4FF0000A4FF6FF
:2021DC00FF7B04F14406A6F143000790A6F14200089006F168000990E06951464FF04042AF
:2021FC004FF0FF3315F0F4FF071CF5D05046049006A904AA05A80FF031FE002840F05981DE
:20221C009DF814000DF1160113F046F9002840F04D81BDF81600ADF8140014F073FBBDF8D1
:20223C0014000125102840F03E8120789DF81810884240F03881049801885A468A4200F098
:20225C0032810178A846913900F00A811F3900F0F380203940F02681817839B3491F03D0F8
:20227C00491E00F0BA801DE1C149102005F04EFD2189C0B28B4504BF401E2081306812F0F1
:20229C0009FA706812F006FAB06814F0E0F8B068642112F016FEA278BD49102005F036FD26
:2022BC006278BB49102005F031FDFBE04578002D40F0F88081798DF80810C1798DF80910F5
:2022DC00017A8DF80CA08DF80BA08DF80A10C17A8DF80F10817AB74B8DF80E10407A02AD7F
:2022FC008DF80D002A681A6068685860B24B0798AF4AAE4916330090102005F007FDC0B29C
:20231C0008B114F063FE1C20AB4DA749009005F13200019062785346102005F0F7FCC0B219
:20233C0008B114F053FE1620009001959E4962784346102005F0EAFCC0B208B114F046FE4F
:20235C006278B8491020922305F0E0FCCDF800A0B34962781020534605F0D8FCC0B208B1D8
:20237C0014F034FE08982B469049914A00904E33102005F0CBFCC0B208B114F027FE1C20B9
:20239C00009005F16A0088490190A2785346102005F0BCFCC0B208B114F018FEA278A149F6
:2023BC001020922305F0B2FC504600909C49A2785346102005F0AAFCC0B208B114F006FEBD
:2023DC00306812F067F9706812F064F9B0684FF4FA715A4610F0D8F964E05846208114F0F2
:2023FC0099F93068642112F06CFD706812F052F9B06812F04FF9FA2012F068FB8A4D28465C
:20241C0012F086FFFA2012F061FB284612F080FFFA2012F05BFB50460090814962785346DD
:20243C00102005F073FC504600907D49A2785346102005F06BFC35E005466878162809D169
:20245C00404612F097FC28B9404613F097FBD046656227E0297905F1080015F0B5FE21E00C
:20247C0045780E3D02D0AD1E18D01BE0818842F203028A4216D181680D789DB9491C02A8F0
:20249C000A684968026002AD41602878634902AA00F0FD00287005E7D81400200820514617
:2024BC0005F0F8F84546049B1BB115B1049815F02DFAF80FFFF490AE206A15F081FE002829
:2024DC007FF48AAE256A284615F076FE854208BF554602D0856812F0C9FD002DA946EBD038
:2024FC002888401E6AD0401E54D01E3840F08E80B9F80800B4F808800546103080B211F0B7
:20251C00EDFE071C3AD0A7F808800999A7F80AA007F10E002A46BD810CF078F8434805784D
:20253C00D04653465DB13B4839898068001F30F8042F914202D06D1EF9D100E003465BB1EC
:20255C001888834508D09D7835B1680804D33848394613F096FD01E04FF001085FEA0805C9
:20257C0008D0012D09D1384612F080FD05E0C0463941010011F01EFA054615B1022012F0AE
:20259C00F9FBA06A09994FF4807215F051F93DE06502021068680168B1F1004F34D040688F
:2025BC0012F064FD2FE0C046A1B6000099010110115F0100171900201E1F0020A069400816
:2025DC0018D3676AB7B1E07807F10803401CE070114900937A883B79102005F097FBC7B2E1
:2025FC00162F07D0042F05D0012013F02DF8384613F0C4FAA069800805D311F0DBF910B90C
:20261C00022013F021F8686812F030FD484612F02DFD51E7C82000204D520110FD38021070
:20263C00ED7401101DEF011020A10700C10F0020D42000202DE9F84FDFF84C54A97800240A
:20265C00FF2904BF002013F0AFFAA87814F030FD054605F1680605F5C97A3168086805F16B
:20267C00900708B1EC8311E0B07B002804BFB07E00280BD13978002904BF9AF800000028EF
:20269C0004D1287F012804BF688CE8832989E88B4118491C6981284615F08AFD01281EBF8A
:2026BC00DFF8E8030178012903D12989EC83491C69814FF6FF79B07E01280DD1B28B698934
:2026DC00288915F071FD38B1298968894A1C93B298422FD0B08B23E0387801280DD17A88B3
:2026FC006989288915F060FD38B1298968894A1C93B298421ED0788812E09AF8000001280D
:20271C0018D1BAF802206989288915F04DFD88B1298968894A1C93B298420BD0BAF80200FE
:20273C0092B2904206D04844688180B215F038FD4844E8839AF80000012813D12889BAF8B7
:20275C000210401C80B288420CDB9AF805408AF8044002208AF800002346A97922460020B8
:20277C0009F054FF05F59A71087920B128890021401CE9836881B07E012813D12989B08BEF
:20279C004B1C9BB298420DD1688115F009FD074605F12E008188308C01FB070728460DF012
:2027BC00BDFA02E005F12E018F88E98BDFF8E092481C474340F6C41808FB07F200922A684B
:2027DC000098D368C318D360B24A106803789B09032B23D199F80F20AF48D3070AD50022B5
:2027FC0002804FF4C873688A7843B0FBF3F35B1C6B611BE00288521C028092B2012A03BF96
:20281C0005F59A70C08800F2DC50688A78434FF4C872B0FBF2F0401C686107E0688A7843C2
:20283C004FF4C872B0FBF2F2521C6A61AF6185F820104FF01C0B994FAB79386800F108026D
:20285C001BFB03F3D1582A68116100F10801AB79D26868691BFB03F3121ACA503868AB79E4
:20287C0000F108021BFB03F3D1582A68916000F10C02A9791BFB01F10C30535C03F0F0038F
:20289C0043F0020343543968AB798A1C1BFB03F30021D1529AF8040008B913F085F938681A
:2028BC00AA7900F110019AF804001BFB02F240088854A87939681BFB00F008440021417429
:2028DC009AF80400042813D1A87939681BFB00F001F110021031135C9AF8082043EA82034E
:2028FC000B54AA7938681BFB02F20244202050743968A87901F112021BFB00F000211152F4
:20291C006749A8790A6802F114034FEA401C143253F80C00AB79D5F814C05B0100EB4C00C4
:20293C00D050B07E02280DD10A68AE7902F11403760114329859AB7995F82E605B0118FB26
:20295C000600D05005F12E0299F80F00C30759D53868AE7900F108041BFB06F60830A3596D
:20297C00AC791BFB04F4A3F5A86303513868AE7900F108041BFB06F6A3592C68A360009810
:20299C001B1A23610868AE7900F1140476011430A359AC79640103F5F66303519AF8040046
:2029BC0004280BD10868AE7900F1140476011430A359AC79640103F5616303510868AC796D
:2029DC0000F1140364011859C5F83401354B186B0C68AE799288006804EB46164243642493
:2029FC00B2FBF4F408FB04F0A0F59660F0612E480278012A30D10868A97900EB4112012046
:202A1C00D07230E0042C0BD10868AE7900F1140476011430A359AC79640103F5616303514B
:202A3C009AF804000B68AE7904280CBF4FF4AA504FF4E66003F114047601A359181A9388C1
:202A5C0008FB03F3A3F516739842BFD30821284615F0E2FB012015E0586A0968AA79407837
:202A7C0001EB4213D872A87939682A681BFB00FB01EB0B00506007210C48017028460DF04B
:202A9C0049FF0020BDE8F28F780E0020D10F0020980C00203C0F002070360020980E00202B
:202ABC009C0E0020D4A50100CC0F0020C80F00202DE9F04F0F46780689B027D5DFF8082464
:202ADC001078002115F0C4FB04001FD0DFF8FC0301688847054614F095FC6168884204BF36
:202AFC0040F2014015F058FB00202072201D0AF003FCDFF8DC130A6828469047204611F023
:202B1C007DFEFF223C21204615F07AFBF80508D5022014F05CFF08B10CF093F987F48070B9
:202B3C00CFE1B80604D50EF022F987F02000C8E1F8070CD514F066FC30B100218160DFF8D9
:202B5C009403006800B1804787F00100B9E1380704D50EF08CFC87F00800B2E1F8060FD53E
:202B7C000021002200230691059204910393029101920091022015F00BFB87F01000A0E18E
:202B9C00B8070FD500210023069105910491039302910191009101223C2015F0F9FA87F036
:202BBC0002008EE179074FF01E08CB4EDFF82CA340F1CD80CA480022002108920791007867
:202BDC0015F046FB0446C7488178FF2904BF002012F0EAFFA07A14F06BFA05469AF80000EB
:202BFC0095F82E91002805F5947B69D0606D807A022818BF032807D130680D3015F0C4FAA0
:202C1C0010B93068C11D07915946484615F0B8FAA0B3606D807C3368002818BF012804D129
:202C3C001946584615F0A8FA04E05A464946184615F062FBFF2843D018FB00F830684044A0
:202C5C0006225946C01D14F097FA306810F80810404400F1010BC01D41F00209089006220D
:202C7C00616DC87A00F0010085F82E01606D00F10C0105F5947014F07FFA21E05946484617
:202C9C0015F076FAE0B130685A46494615F034FBFF2815D018FB00F8306840440D3015F0A2
:202CBC0073FA58B9306840440D3015F06DFA002801BF30684044417F012901D149F00209B1
:202CDC0005F12C004B46017806914289120905920122698C0491C088089902914008039094
:202CFC00CDF800B0079801900020A97915F050FAD5F89C017C498842A8790CBF002101215A
:202D1C0015F032FA7948AB7902682C214B43134401221A73AB7904684B4323445A73AB79BF
:202D3C0004684B4323449A73AB7904684B432344DA73AB79006811FB03F1014400200874CA
:202D5C000720A9790BF077FE87F00400B9E038060FD5002100230691059104910393029139
:202D7C000191009101223B2015F012FA87F08000A7E0F8045DD55E4930680C680D3015F0E4
:202D9C0003FA002844D13068C11D0D3015F0E8F93EE0606D4178480704F13E0526D528787E
:202DBC0002281EBF03286878012830D16978306804F1380215F0A0FA8146B9F1FF0F15D010
:202DDC00306818FB09F948440D3015F0DDF968B930684844C11D0D3015F0C2F93068484442
:202DFC00C11D062204F1380014F0C6F92878022818BF03280BD130680D3015F0C5F930B998
:202E1C003068C11D062204F1300014F0B5F92468002CBED13748DAF8042000784FF48051D9
:202E3C0010F0F2FF10B18E2015F096F987F4805047E0B80505D514F0FDFB2F49012008607C
:202E5C00FEE7780504D511F07CFE87F4806038E0780405D5812015F07FF987F4804030E06E
:202E7C00B9042DD5254C206810B1002012F09CFE4FF0FF3020600020214C0DF039F92168CE
:202E9C0051F8202F684690471E494A6B086BC96A24681D4B019200900293ADF810106B4615
:202EBC001A4A1B491B4803921B4A079225681B4AA8471B49086004F005FB87F4005000E0EC
:202EDC00002009B0BDE8F08FD50F0020A81F0020AC1F0020480F0020680F0020880E00203F
:202EFC00D70F0020780E00204DE50110F83500204C0F0020C70F00207C052043380F0020BE
:202F1C00200F00203C2100200174010011740100C4250020280800201EFB0080EC0A0020C5
:202F3C001C0F00202DE9F84F0546DFF81804DFF818640278002A84B04AD0052A58D0062AC3
:202F5C0061D0072A18BF082A00F0DA800A2A00F0CB81112A02D0132A52D0E9E1DFF8EC3304
:202F7C001878002115F074F904001EBF606D407810F00C0F2CD0216DC0064CBF886CC86E0C
:202F9C000622016801F10805A91C684614F0F4F8287800F00F0105291AD16946C0F3801077
:202FBC0015F0EEF8002813D03168684615F0E4F80546316804F1380015F0DEF885420DD047
:202FDC00606D4178C80604D440F2014015F0E4F8B4E1607B40F002006073AFE133681E2077
:202FFC004543581906226946C01D14F0C5F8A5E114F0F1FC0028FAD1012015F0A9F89DE198
:20301C000CF0E7F99AE1DFF84853286815F09CF80400F7D020790328F4D1207A00F00F01B4
:20303C00072938D1DFF82C0300684169497A4A1E11425ED0617A04F10A035A5C02F03F02B1
:20305C00252A56DBA17A8A09012A52D111F03F0F4FD0007C14F02CF8E17ACA074CBF04F19A
:20307C00110204F10B028B0748BF921D0B0748BF921CC90648BFD21C1621127852094A43A3
:20309C00B5498B180A31EB608A5A428699898186DA89C2862DE000F00F00082829D1A17A1C
:2030BC00880926D129B3AB480168087C14F000F8E17A074688071CD5062201F001015143DD
:2030DC00601800F10C01684614F056F8207AC009FF280ED0694615F053F850B1306800F16D
:2030FC000D01684615F02CF818B90521384615F093F82079032802D0002012F055FD13E1CC
:20311C00DFF8589299F802000024FF2821D013F0CFFF804608F16C07786815F015F802907C
:20313C0029460279032A01D0080012D00298826813788DF8003003F0030001909DF80000C1
:20315C00830604D50124019820B97868EDE00800F9D0F3E0557802F1020A24B31AF8010B48
:20317C007F4A136803902C2098F806C010FB0CFC9C4401238CF80530002998F806C01368F0
:20319C0010FB0CFC9C44039B03F01F038CF81A3098F80630126810FB03F01044039AC2F3BB
:2031BC008112C2761BD10198032808F2171B1BD0B5B1387868B108F1F400017801290FD1C2
:2031DC00604A1178072904D0082904BFC078012806D13D2101208BF801108BF80000ADE04D
:2031FC0060490A78012AFAD098F8940090B32D1FEDB29DF8001053462A4640460CF052FCC3
:20321C0000281EBF58490878002809D101203D218BF800008BF80110306814F08DFF8DE03F
:20323C00524801688847064698F80610D9F804204FF4D07041435018002280F8412108F551
:20325C009E700168807949080CF08EFF48490A68304690470298002181600198032819D06F
:20327C004448416909788A0709D541690878C1074CBFE81C28461AF80000387201E081215E
:20329C0039722A460198C3B299F80200514605F0EDFD21E09AF800001CB11B2804BF022D4B
:2032BC0001251C2803D234490B5C9D4206D08BF802000721404614F0A7FF0AE02148017871
:2032DC0008295146404602D114F057FB01E000F059F850460FF0FAFC786814F029FF029907
:2032FC00404614F021FF29E0244C207830B3244D286814F029FF08B3017903291ED1017A1C
:20331C008A0611D5807AE178C0F38112914202BF217900F01F00814206D1A078002801BFAB
:20333C00607800280121A170286814F001FF05E0002012F039FC862014F086FF05B0BDE8E5
:20335C00F08F00BFC80F0020680F0020D50F0020BC0A0020540F0020E0070020780E00206B
:20337C00F8350020D20F002082360020A81F0020AC1F0020D4A501006CA601008C350020CB
:20339C00AC0C00202DE9F043044685B0084611F801CBDFF8A483DFF8A4332C22BCF1030F95
:2033BC004FF0000904F5A47704F1660504F1F40600F0C380BCF1070F00F08081BCF10F0F94
:2033DC000CD0BCF1110F00F02481BCF11A0F00F03681BCF11B0F00F061818EE1707A82078B
:2033FC0003D40F2184F8191159E008784A7800EB02233B808878CA7800EB02237B800879F0
:20341C004A7900EB0223BB808879CA7900EB0223FB80087A38724A7A887A02EB00237B81B5
:20343C00C87A0A7B00EB0223BB81487B8A7B00EB0223FB81C87B0A7C00EB02233B82487CAF
:20345C008A7C00EB02237B82C87C0A7D00EB0223BB82487D897D00EB0122B948FA82017856
:20347C008A0658BF4FF01A0913D504F5AA70049079890391387A029021890191F888009072
:20349C00BB887A883988204614F04AFEC8B14FF01E09707A410706D40F2084F81901204642
:2034BC0014F03AFEF0E04A460F21204614F030FEF8880090BB887A88A17948460FF0E0FAB6
:2034DC00E9E004F1860079888180BA88C2800222F98801810270A0F80290A18EC91DE983C2
:2034FC00628E8188B1EB520F02BFC188A28E914202BF0089E18EB0EB111F1CD0287C012870
:20351C0004BF687C0F2809D0687D00281CBF687C1A2803D00F21A976FE2176E0FC212046B0
:20353C0014F072FEF8880090BB887A883988A07914F0EAFDAFE0102167E0707AC20709D44A
:20355C0031781A200129707002D1FF220D213BE00D215AE085F8009085F8069001233371D5
:20357C00082204F1B00014F0CBFD0146022204F1B80014F0C5FD04F1A8080146082240461A
:20359C0014F0BEFD07460821404614F0B5FD04F19C0804223946404614F0B2FD042140467C
:2035BC0014F0AAFD04F1A00014F0A2FD04F1980014F09AFD6348018841F0800101803078D5
:2035DC00012805D1FF220421204614F089FD62E06E7C0F2E18BF142E04D00E2E1CBF0C2EF3
:2035FC001A2E11D12F7C204614F076FD0421204614F00AFE012F05D11A2EAE7614BFFD2103
:20361C00FB2102E0314600E00421204614F0FCFD41E00E783E761A2E497879766DD11868A0
:20363C00A679411C564301F806901968A37912FB03F20A4482F80490A179787E56E0A77969
:20365C0018680E785743074406F01F0117F8210FB60938B17878F040C00703D594F8960184
:20367C00042805D120221A21204614F051FD12E0F970A179186812FB01F28118204681F88A
:20369C002360002114F0A9F928B998F800004FF4804109F021F84FF0010932E0A179186848
:2036BC0051430144C88808B981F80190A179186812FB01F2811881F80490ECE709780F292E
:2036DC0017D01A2919D1A1791868514301441A2081F80190A1791B6812FB01F2991881F83C
:2036FC000490F17A01F0FB01F172A1790BF0FAFED1E7717A01F0FD0171720146204614F02C
:20371C00E7FC687C1A2812D1A87C17281CBF1028FC280CD12E7C204614F0DEFC012E03BF4B
:20373C001A20A876FB211A21204614F06DFD484605B0BDE8F08300BFC70F0020F83500208D
:20375C00200E00209C0F00202DE9F84FDFF8A4030278112A03D0122A00F0C581C7E1DFF8E0
:20377C0098331878002114F073FD05000AD1002012F01AFA002012F017FABDE8F24FFF20EF
:20379C0014F062BD05F14C0A9AF8000008B90121E972401CDAF808108AF800004A78D1066D
:2037BC00DCD4E97DDAF80470C2B28A424FF00008D4D305F1280407F1900907F17306C34636
:2037DC0040F08C80A87F7075E97FB175DAF808205278930710D5EA7FD30604D5C01E7075D6
:2037FC0001F0EF01B175C7F874B086F800800022B17D01F0FE0171E1910608D4E08B00B1A4
:20381C00E07E3076E08B00B1206AC9F80000DAF808004178CA070DD5E08B00281CBF206AE3
:20383C00002807D0C9F80000A17EE08B814238BF08463076E87FC1060CD5B86B217800EBBE
:20385C008100B863A98CA63100EB810078670220307003E0C7F874B086F80080DAF80800F9
:20387C00417811F0030F22D1007814F0B2F85FEA00081CD098F8B000032809D1E87F8106D7
:20389C0015D440F02000E877B07D40F020000DE068B9E87F81060AD500F0DF00E877707D01
:2038BC00A0F112017175B07D00F0DF00B075E97F002201F0FC01284608F072FAB8F1000F3F
:2038DC003DD0E87F81063AD598F8B000022836D141462846BDE8F44F14F083B8E87F810647
:2038FC000AD500F0DF00E877707DA0F112017175B07D00F0DF00B075DAF808004178C807A5
:20391C001ED5717D891E717501F03F01B07D00F0F700B0758207717504D4891D717540F0B0
:20393C000200B075B07D410605D5727D511E717500F0BF00B075C9F800B086F81880D6E0A1
:20395C009AF80020E87D121AD2B28907009240F18280012A07F140083FD1B86BA98C00EB71
:20397C008100B863A87F00F03F00A8777075E97FB175DAF8082053785A0704D5801F707524
:20399C0001F0FD01B1750023707DE17E00F03F00421898F80000521CC0F3800192B200F098
:2039BC00030014F025FC00F59B70A8841E21A88C90FBF1F18AB2B17D01F0FE01284608F0F7
:2039DC00EFF986F800B0E08B00B1E07E3076E08B00B1206AC9F8000089E0B86BA98C022A41
:2039FC0000EB8100B86326D1E87FC10706D5707D811F7175B07D00F0FE00B0750023707D60
:203A1C00E17E00F03F00421898F80000521CC0F3800192B200F0030014F0EAFB00F59B7050
:203A3C00A8840022B17D01F0FE01284608F0B8F9607FA8F81A00617F0098491C081AC0B2DD
:203A5C0001281CDDAA8CB96BA63201EB820179670221317014E0B86BA98C00EB8100B86310
:203A7C00617F0098081AE97FCA06C0B207D5AA8CB96BA63201EB8201796702213170B0B362
:203A9C00D9F80020E37E95F81F80A97F1A44C9F8002028F00108DAF808205278530748BFDF
:203ABC0028F00208920748BF28F00808012807D1207F3076C7F874B028F0100886F800B079
:203ADC0001F0C004404614F097FB00F03F002043707586F81680002208F0FC012846BDE844
:203AFC00F84F08F05DB9BDE8F14F0CF02ABCBDE8F18F00BFC80F0020D50F00202DE9F04168
:203B1C00FF2806462AD113F0BFFD10F01F0F22D0042011F0BFF808B1042016E0012011F06B
:203B3C00B9F808B1012010E0022011F0B3F808B102200AE0102011F0ADF808B1102004E0B8
:203B5C00082011F0A7F820B10820BDE8F04111F043BB12F029F80020BDE8F08111F03CFB22
:203B7C008046012ED8F8044046F2A81740F6C4100BD0022E5DD0042E00F0AB80082E00F074
:203B9C00F380102E00F04281E5E7DFF8000301688F88102011F07EF8E8B1102011F01CFBF7
:203BBC0005466E6846B9022011F074F820B1022011F012FB05466E68012011F06BF840B1A2
:203BDC00B068A0EB8701A06812F004FD08B94046C2E72846C0E7022011F05CF890B10220B4
:203BFC0011F0FAFA06460120756811F053F838B1A868A0EB8701A06812F0ECFC0028E6D042
:203C1C003046A9E7042011F045F808B10420E7E7082011F03FF830B1082011F0DDFA41688B
:203C3C00002999D1D3E7012011F034F8002893D0CDE797490A689749D3690A7802EB82022D
:203C5C009E18F7884743042011F024F807F5166788B1042011F0C0FA06460220756811F06B
:203C7C0019F80028CCD0A868C11BA06812F0B2FC0028C5D1ABE7082011F00CF8D8B1082081
:203C9C0011F0AAFA05466E6846B9012011F002F820B1012011F0A0FA05466E68022010F057
:203CBC00F9FF002895D0B068C11BA06812F092FC00288ED18BE7012010F0ECFF08B10120F8
:203CDC00C8E7102010F0E6FF08B11020A5E70220AAE771490A68714953690A7803EB0216B2
:203CFC00B7894743082010F0D5FF07F5166780B1082011F071FA05466E6846B9012010F063
:203D1C00C9FF20B1012011F067FA05466E680420C5E7012010F0BEFF28B1012011F05CFA4B
:203D3C00064604209AE7102010F0B4FF80B1102011F052FA05466E6846B9022010F0AAFFFA
:203D5C0020B1022011F048FA05466E680420A6E7022010F09FFF28B1022011F03DFA064600
:203D7C0004207BE704205FE713F02FFE08B1D0F89070042010F08EFF58B1042011F02CFA81
:203D9C0006460820756810F085FF002818BF002C68E7012010F07EFF60B1012011F01CFAD1
:203DBC000646082010F076FF002818BF002C3FF427AF0CE7102010F06DFFA8B1102011F0B1
:203DDC000BFA05466E6846B9022010F063FF20B1022011F001FA05466E68082010F05AFF8D
:203DFC00002818BF002C5DE7022010F053FF58B1022011F0F1F906460820756810F04AFF14
:203E1C00002818BF002C2DE708200DE7032013F0DEFD08B1D0F89870022010F03BFF50B144
:203E3C00022011F0D9F90646102010F033FF002818BF002CBBE7042010F02CFF28B10420AA
:203E5C0011F0CAF90646102008E7082010F022FF80B1082011F0C0F905466E6846B901207A
:203E7C0010F018FF20B1012011F0B6F905466E68102014E7012010F00DFF28B1012011F0F9
:203E9C00ABF906461020E9E61020CDE60C360020500F0020D80F0020540F0020D90F0020C1
:203EBC002DE9FE4F0422FF21684613F05BF9DFF85863B0780024FF2800F0A38113F0F8F82C
:203EDC000546B07813F076FA019005F217100178012908BF417800F0DF8005F1740005F55B
:203EFC009279817B022904BF05F174018C7395F89201022805F1740008BF85F89241017FFC
:203F1C00022904BF05F174010C77B9F80E1019B199F80C0008F0E0FB6889BC4E288105F502
:203F3C008D77B27AF079317B80184118F07A0818717B00EB010AB8883988401CB880514499
:203F5C007888398010187880D9F80000F0B1B04995F806E00B681C2103F10E0C11FB0EFEB8
:203F7C000E331CF80E1030F811C0D44420F811C01C2195F806C011FB0CFC13F80C3000EBE2
:203F9C004300B0F84A105218A0F84A2011F0E4FAF079DFF880B2002804BFF07A002805D1B0
:203FBC00307B002804BF707B00282FD00199CC812A89E8892C748218287FAA81012804BF3A
:203FDC00688CE883A979012207200AF034FDA046707878B1012105F174022977907800287A
:203FFC0002BF05F17401887B002803D1087F08B9688CE88399F81400002856D0022804BFF3
:20401C00F07A00284CD189F814404EE0A979002207200AF010FDEC83B07A40B1297F2C748E
:20403C0001294FF0010825D1688CE88322E0F888401CF8804FF00208287CD8B1DBF80010EE
:20405C00AB7995F82EC001F114026969490040F6C4105B0110FB0C1101F5F661D150A87965
:20407C00DBF8001001EB4010C17C01F0F00141F00401C174A8892989814206D08842A7D2BC
:20409C00081A41F2AB029042A2DA287C08B1052901D0082100E03E21284614F0BDF8B0E039
:2040BC00707A10B1022189F81410F07BC1070DD529683069C86000F59070C860AA79DBF8F7
:2040DC00000000F1140152018C5014E0DBF80010AB7901F114025B01D058C9F810004C48A3
:2040FC00AB7901681C2001F1080243432968D058C860EC832C77484A50690078810702D544
:20411C00B07B802800D1812005F17409434989F8000091F8200018B12946012013F053FC6A
:20413C00284609F045F902281CD199F80700022805DB6A463A4928460DF070FD0446284642
:20415C0013F0C2FF01285CD020000DD02246694628460EF0B9F938B9284609F029F9012855
:20417C0002D14EE001284CD00121284613F0A8FF284613F0A1FFFEF75DFA012841D028469E
:20419C000EF050FD00F0F4F9264E3068002838D0B088AA7990421CBF4FF6FD71884230D119
:2041BC002148007B13F06EF904002AD084F80080A8791E4960800A68A879115C217105F5A7
:2041DC00C9721079607199F90010A171A4F808A07888608113F016F9050005D1FF204FF00A
:2041FC00FF312073216109E02878207313F060FF0146A86813F058FF800820612046316827
:20421C008847BDE8F78F00BF780E0020980C0020980E00209C0E0020D4A501003C330020C6
:20423C0044230020800E0020D4250020103600202DE9F84F05004ED0BD480078092818BFA9
:20425C000A2804D00B281CBF0C280D2801D121206CE1A878002113F0FBFF040008BF4220FA
:20427C00F6D0DFF8D082A978B14ADFF8CCA288F80010107810B9A8788AF8000004F148060C
:20429C00F068417801F01201022902BF706900280C2012D0607AF0B1A07B012804D1B5F8B1
:2042BC00030008B1812816DA6878402813DA204613F0F6FEB06808B9072037E1B56128782D
:2042DC0001281FD1A07B00281CBF0128042819D19A48007808B9122028E199494A7882428E
:2042FC0008BF0920F8D0F068417848070AD504F1220180204A7F04F1380105F0F3FE08B15D
:20431C000B2013E1687808B911200FE12878DFF834928D4FDFF834B2012840F0AF80207AA8
:20433C000021012821734FF00A0A11D19BF80000402110F03BFDB5F803000AFB00F140201C
:20435C0013F0AAFE0100E0D1B16968794871ECE001202072E172617308F0B6FE606038687E
:20437C0080477B4A01461068274602E07A68426000680028FAD10846D9F8001088477968C9
:20439C0074484861002198F8000013F014FB98F80010012211200AF04EFBF0684178C806C3
:2043BC0005D5384601F096FD010025D0BEE0002078840EF00DFC87F82100F068007813F0DB
:2043DC0008FB04001CBF94F8B000002807D0F87F40F02000F877787D40F0180078753846C6
:2043FC00FDF716FA0100E1D134B194F8B000012804BF384613F0F3FAF0684178C8071CD59E
:20441C0007F14204A18800291CBF3068002814D022788A4211D20F2013F03AFE68B1F0684D
:20443C0001788DF80010A088ADF801000F2021788DF80310694613F027FE3D4C2078002804
:20445C0073D14549087800281EBFF068417811F0030F03D04148006813F012FE112020702D
:20447C0001213972B5F803000AFB00F1402013F013FE01005AD100F07BF856E0207A0028B2
:20449C0054D038688047054698F80000012113F092FA9BF80000402110F088FC00203049D8
:2044BC0020720A6898F8006011460B68187A002802BF586D0378B34220D0C9689142F4D1B9
:2044DC0098F800009AF80010884224D112F09AFF616888421FD111F03FF840F2014013F003
:2044FC005BFE20492048086001219BF8000008F0F3F8D9F800102846884716E01B4E307851
:20451C000128DDDD084610F071FB12F0ABFF3078411E3170D4E7204613F0AEFDD9F80010DE
:20453C0028468847204610F069F90020BDE8F28FC80F0020D60F0020D50F0020D40F002011
:20455C00780E0020AC1F0020A81F0020C70F00204C0F0020B97E0000880E00206C0F0020CE
:20457C000C360020480F0020C94B00007F3600202DE9FE4FC24D6F681FB9BDE8F74F13F04E
:20459C0077BD3878DFF8FCB2BF4EDFF80083012818BF02280AD004281CBF0828102805D0E7
:2045BC00402818BF802800F0A38061E113F072F80028FAD0012010F06DFB20B1012010F0C9
:2045DC000BFE10F02FFB082010F064FB20B1082010F002FE10F026FB3878FFF78FFA8146F5
:2045FC0098F80100D9F8044000284CD005F058FC12F05EFD8246DAF80000009001464F68E7
:20461C00B4B1484606F0D6FE022811D099F80010012902D0082965D02AE128B913F048FD7F
:20463C0000F5E8504C30A0600120A87011215CE00098017880290BD10820954930700A7850
:20465C007869012A1ABFDBF824100978012114E0072030709AF8060012F0ACFE0446207BCB
:20467C00C10748BF9AF8060063D489480178786901291CBFDBF824104978C1729AF80600BD
:20469C0088F80200BBE0B9F1000F11D099F800004F4509D1012818BF082801D134BBECE08B
:2046BC00002011F081FA21E0012802D0082817D0DEE0002CF3D013F0FBFC0146A06801F543
:2046DC00C241A83111F086FF28B913F0F1FC00F5E8504C30A060112030700121A97005E0F1
:2046FC00002CDCD00820A870122131704846BBE098F80100002800F0848005F0D1FB12F019
:20471C00D7FC8146D9F800000090D0F804A098F8020012F0CDFC01903878402813D199F89B
:20473C00060012F047FE0446207BC1070BD599F8060012F0BDFC052113F06EFD207B00F012
:20475C00FE00207399E012F09FFF10F01F0F32D0012010F09FFA20B1012010F03DFD10F07D
:20477C0061FA082010F096FA20B1082010F034FD10F058FAA878FFF7C1F907467C68D4B108
:20479C00009906F017FE022815D03978012902D008290BD00CE028B913F08AFC00F5E8500E
:2047BC004C30A06011203070012156E0082057E0002011F0F9F90198484520D0009934489B
:2047DC000A78802A0BD10821317000780128DAF814001ABFDBF82410097801210AE00722CE
:2047FC00327000780128DAF814000EBF0121DBF824104978C17299F8060088F802000098D9
:20481C0032E012F041FF10F01F0F36D0012010F041FA20B1012010F0DFFC10F003FA0820A6
:20483C0010F038FA20B1082010F0D6FC10F0FAF9A878FFF763F9074638787C68012802D01E
:20485C0008280CD019E0C4B113F032FC00F5E8504C30A060012111203070A97003E064B1E4
:20487C00A870122131703846BDE8FE4F06F01ABEBDE8FE4F002011F097B9BDE8F78F00BFA5
:20489C00A4350020D4A50100C80F0020780E0020CC0F00202DE9F843A04CA149A14E20704B
:2048BC000A22002008600D239F484FF4087102704380818084B09D4A9D48106037789D481B
:2048DC000770FF2F7178417008BFFF29B2788270F378C370357905717679467114D1FF2AFC
:2048FC0008BFFF2B10D1FF2D08BFFF2E0CD192490A7802704B7843708A788270CB78C3701E
:20491C000A790271497941718C4902788C4D8D4E8D4F0A7043784B7082788A70C378CB70D8
:20493C0002790A714079894A4871FF2028706870A870E87028716871002085490880F06BDE
:20495C008449407808708449F06B007808701388824883490380F06BC06C08608149F06B5E
:20497C0090F83C0008708049F06B90F83D0008707E49F06B90F860000870F06B406901797E
:20499C007B484A1E0270F06B7A49C0783870F06B8069086008B911F007F9F06B7649C069AF
:2049BC00086008B911F000F9F06B416D73480C2212F0E2FB13F058FBF06B7149006A0860AA
:2049DC0008B911F0F1F8F06BDFF8B881406AC8F8000008B911F0E8F8F06B6B49806A086038
:2049FC0008B911F0E1F8F06B6849C06D00283CD001220A75F06BC06D02681378C3F340007E
:204A1C0028B1C3F3C00000280CBF01200220487500208860C8600861F06BC06D4268907865
:204A3C000870F06BC06D4268D0784870F06BC06D426813788B70F06BC06D42685078C870C6
:204A5C00F06BC06D426810790871F06BC06D426850794871F06BC06D426890798871F06BC3
:204A7C00C06D4268D079C87101E000220A7500F0DFFE07280AD105F0C5FB20784FF4804117
:204A9C0007F02AFE002011F08FF843E040480168884781460CF01EF8D8F80000016888476F
:204ABC00684612F0FFFCD8F8002004208DF80000694652F8043F00209847364908600EF076
:204ADC00C7FAF068344A01883878344B014311804846196888470C21314812F086FF28461D
:204AFC0013F0BEFA13F0B8FA2E4800214FF6FF7201608280F06B90F858102B48006812F052
:204B1C0051FC0121FF2012F056FF20784FF4005107F0E2FD05B0BDE8F08300BFC70F002010
:204B3C00380F0020D04F0050700E00203C0F0020B63F0050400E0020E8120050500E0020FF
:204B5C00480E0020D4A50100C40F0020462600209E0F0020C60F0020D40F00206E36002041
:204B7C000036002080360020813600207E360020CB0F0020200F0020240F002098350020B9
:204B9C00280F00202C0F0020300F002004350020A81F002004360020A00F0020AC1F002094
:204BBC00FC0D0020800E0020183600202DE9F84FDFF8B49299F80000002113F049FB04001D
:204BDC0004F1500602D110F0EFFF3EE1207ADFF89CA248B99AF8001011B1204613F04CFACB
:204BFC0020460FF00BFE1DE0217BA14D491C217330694079D0B1C9B2814217D128784021B1
:204C1C0010F0D4F8002121729AF8000010B1204613F032FA20460FF0F1FDFF2243212046D2
:204C3C0013F0EEFABDE8F14FFFF7A2BC04F14508002088F8070012F0C4FD7168D1F80320C3
:204C5C00D4F810C022F07F4240F6C41303FB02CC4FF00B0E90FBFEFE0B2202FB1E0037682A
:204C7C0080B24FF47A6148431CFA80F0B8603368986820619AF8000002280BDB7D490868AB
:204C9C00C268006811680069096911F0A3FC08B10CF0EAFA70684178CA0604F122071BD56A
:204CBC00A07B01280CD1002121729AF8000010B1204613F0E1F92878022107F00DFDAFE01A
:204CDC00306890F8631001F0E00141F0860180F8631069494166A3E0356805F1020A002114
:204CFC00AAF8001005F1730B407A0EF0C1FF25302076207E8AF80C0020460AF08BFD207D5E
:204D1C008BF815000020617D8BF816108BF81800C5F890003888401C388080B20DF058FFF6
:204D3C0084F821007068417811F0030F43D1007812F04FFE00283ED000F1B00108780328B8
:204D5C0006D1E27F930603D442F02002E27732E001280ED1E07F40F02000E077607D40F0B5
:204D7C00180060752046FCF753FD204612F037FE21E008B10879F0B1E07F00F0DF00E07783
:204D9C00B068002804BFF068002811D17068007D832818BF03280BD0607DC10644BF00F01E
:204DBC00EF006075607D010744BF00F0F70060752046FCF72DFD617D002201F0FE01204696
:204DDC0006F0EEFF0020AAF8300005F13E0094F8211001F03F010170628BA96801EB8201E2
:204DFC00A9630021018298F80020828371684A78910709D5BA887A80A17F01F03F0141F063
:204E1C008001A17701218183E07FC10608D57988A86BA63100EB8100686702218BF80010D8
:204E3C00164A107888B1387F022818BF03280CD1134F38680D3013F0A7F930B93868C11D2C
:204E5C00062204F1300012F097F9FFF791FB4CB17068017E480605D54946BDE8F44F0320BF
:204E7C0013F012B9BDE8F18FD50F00207F360020C70F00200C36002000204E00880E0020CE
:204E9C00680F0020F8B5144600254FF48067A04EC21B84B006F1880332D0921E37D0521E5F
:204EBC0045D0521E51D0521E56D0521E5AD0521E00F07780921E00F07980D21E00F0A98007
:204EDC00521E00F0B480921E00F0BD80521E00F07880521E00F0BE80521E00F0CC80521E33
:204EFC0000F0CF80521E44D0521E53D0D21E00F0DC80921E00F0E080521E00F0EB80FAE05F
:204F1C00012915D12078022812DC7070FDE001290ED1207802280FDA012804BFF1780329C3
:204F3C0000F0F2800028B070F0D13574DEE0012940F0DF802078052880F2DB800328F070AD
:204F5C0009D10020B0703074D0E0012962D12078022867DA3073D8E010295BD1102221460E
:204F7C006C4814E0012955D1207802285ADA3071CBE001294ED12078022853DA002870719A
:204F9C00F6D001207074602206F12801184612F0F3F8BAE001293DD12078022842DAB0726B
:204FBC00B3E0012936D120787073AEE0002931D113F066F910B9FBF7C6F91DE0012030753E
:204FDC00A3E0072926D10622611C02A811F0C4FE00950023217801AA02A808F0A1FAB0B957
:204FFC00B07A10B913F04CF910B1B07A012808D19DF80400FBF7B8F90546502011F0AAFBD0
:20501C001EE0316A9DF80420012088547DE034257BE001296DD1F17B2078022903D0C11FCA
:20503C000A2902D365E0102863D1B0736DE001295FD1F17C2078F074002908BF012864D11A
:20505C00FBF72DF961E0012953D12078032850DCB0745AE001294CD12078022849DC0028EA
:20507C0047D0F073022803BF1020B0730120002012F0EEFF49E001293BD1207811F0A4FC93
:20509C0043E07079002834D1602908D1002C30D060222146184612F06FF8012003E001294F
:2050BC0027D134B3207870742FE0012921D104B320781949087028E0D9B913F0E1F830B9C6
:2050DC00FBF7E5F90546502011F044FB1DE0012070751AE001290CD12178022909DA012914
:2050FC0004BFB07800280FD03174084612F092F90BE0182509E00F2806DA022904D1218851
:20511C000EF0CCFF054600E00225284605B0F0BD581D002090330020853600202DE9F04FE0
:20513C000746F88916468A46ADF1440DC01D80B205460BF053FE8F4CFF280BD1284604F084
:20515C0041FF854204DD641C207800B905200EE1012000E000206178D9B916B1022E18D1FA
:20517C00B8B1387AFE88BD888DF82C000023009309AAADF82A60E18E94F83300ADF8285099
:20519C00032305F023FF9DF834003874BDF83060BE81BD8955B3FE8946B3AD1B4FF00009DF
:2051BC001FFA85F84D463A7C761B202ED4BFB6B22026E06808EB050189B2334601EB423180
:2051DC0001AA12F0F9FA0AEB050101A8324611F08DF858B9AD19FE89ADB2AE42E3DCB9F15B
:2051FC00010F1CBF4846B88140F0BA8094F83310E58EE06801AA04238846490312F0DCFA29
:20521C00019800F0FF007E2806D140467C2110F05BF9019800F0FF007C2840F0A580F889F4
:20523C0042F20102C11D8EB2A9198A4240F39A80F9883A7AC1F301238DF83910B98843EAD9
:20525C0082038DF838308A1007468DF83A200423C0F3851201F0030142EA81128DF83B20F5
:20527C0010FB03F1FA1D01F0FC017B1990B28DF83C101FFA83FB0D282BDB5046394600225E
:20529C0012F0E4F9024605210EA812F0DFF99DF83C103B4600F03F07524641EAA011B80051
:2052BC008DF83C1040F0020096278DF83D0029468DF83E7040460EF015FA074659460EAA77
:2052DC000723404667700EF00DFA384360704DD135E004F1240051463A4609F097F90EA938
:2052FC000A68381900F124094846097902607B1D0171002204F1240099B212F0A7F99DF878
:20531C003C10962300F03F078DF83E3041EAA011B8008DF83C10334640F002000EAF4946E7
:20533C008DF83D003A68B8790A60BA88887140468A8004F1240229460EF0D4F96070E18EF3
:20535C00AD194FEA8807AAB28919E18607EBC8010919A1F84C2048B1404659460EF026F822
:20537C00607803E0052000E001206070C0B211B0BDE8F08FA02100202DE9FE4F0120019013
:20539C008A4D8B48DFF82CA20278112A02D0122A06D006E1884E3078002112F059FF040025
:2053BC0000F0F1808548DFF818B2DFF81882CAF8000001223178112009F03DFB216D606D46
:2053DC00814A009041F608034078C00640F1B480084641F20447B0F802C0BC451CBFB0F877
:2053FC001AE0BE454FF4A0590AD0468EBE421CBF41F20A47BC4503D0BE4518BFBE4203D1C9
:20541C002F80CAF800B036E04FF0000C40F2FE37182606FB0CFE8644BEF802602E80012E7F
:20543C00F6D0002E1CBFB61E012E43D9F61B17D04FF48067F61B4ED04FF44067F61B39D00D
:20545C00B61E012E36D9361F34D040F2FA37F61B65D0761E57D0F61E3DD0361F3BD063E09D
:20547C00B0F800E040F60106B64523D10CF1010CBCF1020FCCDDDAF80010594510D1816C9D
:20549C000B680A6819790832032904BF90F86C10012906D1D2F80E1000291CBF118B00299A
:2054BC0079D1A5F80090CAF80080816C08680021017170E0A17B01291CBF0429A5F800905C
:2054DC00CAF80080117D0029D5D09168491C002391601382CFE7A17B012906BF41F20244D1
:2054FC00AEF80240AEF802902988994214D1D368118A5B1CD360491C538A11828CB2A34287
:20551C000AD2518208E0009A5378DA064CBF8A6CCA6E116800220A71CAF80080ABE7002050
:20553C0010F042FB832003E0002010F03DFB842012F08AFE012037E0488E288041F20444D5
:20555C00001B01D0801F02D1CAF800B023E0488898420BD1D168108A491CD160401C518A36
:20557C00108283B2994208D2508206E0107D20B19068401C00219060118241F20640288064
:20559C00CAF8008007E012F020FA60B1C0880F492880CAF8001001210D4A107807F09CF8F3
:2055BC0001E0002001900198BDE8FE8F9A0F0020C80F0020480F0020D50F0020756B021045
:2055DC0071110000C94B000004350020BFF10000C70F00202DE9F0470D4629048F4EDFF899
:2055FC00408240F1F1808F4F38780BF0ABFA040018D021780120B02917D0B12908D0C229FA
:20561C0000F0B580D02904BF2046FBF7F7F9D1E0207920B92289E1886088FAF746FD20468C
:20563C0011F044F985F40040F5E02179387A012910D009294DD01E2900F08D807D2908BF2C
:20565C00002806D16088FBF765F901466088FBF71EF986E00028FCD1207AB4F8029008285C
:20567C0035D14846FBF756F902280FD003282ED1002204214846FBF70EF80246B8690028A8
:20569C001CBF4368002B22D004211EE0002210214846FBF700F88246484612F029FE60B1CD
:2056BC0098F8001039B9811D4079012200F0010012F0CAFC01E001203070B86900281CBF43
:2056DC004368002B03D05246052148469847608805E0002845D1617860881A2902D1FBF706
:2056FC00B5F83EE0FBF716F9022819D0032838D120896688012804BF6089032806D1E068C5
:20571C00827804213046FAF7C6FF00E01820B96900291CBF4B68002B23D00246042117E0AF
:20573C00218966880120012904BF6189032907D1E268917821B9012210213046FAF7ABFF27
:20575C00B96900291CBF4B68002B0AD0024605213046984705E0787A18B9608800210AF0E1
:20577C0097FB217904F1080012F02EFD57E7A07810BB012179742022E11C07F1880011F0C7
:20579C00FBFC202204F1230107F1A80011F0F4FC202204F1430107F1C80011F0EDFCB869C4
:2057BC0000281CBF4368002B06D0627806210020984701E00028D9D11B480078FF2802D097
:2057DC00214603F043F92DE7690716D5174A106880B1FBF7A9F804000CD0E07A50B90121A6
:2057FC00E1726268A17A2089FAF79DFE606808B111F038FE85F004000DE028070AD531784B
:20581C00012902BF98F80000002808F049FA85F0080000E00020BDE8F08700BF863600205A
:20583C00AA0F0020581D00203E2700202036002038B57B4D687911F01DFE7A4900280860DE
:20585C006ED00022026002730868C2610262A87911F010FE74490028086061D000220260CC
:20587C00C27200200A681074052308684374002209684A61E87A11F0FDFD6C490028086093
:20589C004ED06B4C21782878491D10FB01F080B211F0F0FD67490028886041D020780028CB
:2058BC0074D0698811FB00F080B211F0E3FD624A0028506034D061482278017811FB02F046
:2058DC0080B211F0D7FD5E490028086028D000250AE0E8B211F06EFD00214180816001801D
:2058FC000223037101736D1C2078E9B28142F0D311F0C0FD53490028086011D0207840009A
:20591C0011F0B8FD50490028086009D020781C2110FB01F080B211F0ADFD4C4A00281060D7
:20593C0076D02078400111F0A5FD4949002808606ED02078000111F09DFD464900280860D6
:20595C0066D02078000111F095FD4349002808605ED02078302110FB01F080B211F08AFDE0
:20597C003E4A0028106053D020782C2110FB01F080B211F07FFD3A4A0028106048D020786C
:20599C0011F078FD37490028086041D0364C374D2178287800EB4100C000103080B211F0B6
:2059BC0069FD33490028086032D000F1080141602878227800EB4200C000103080B211F022
:2059DC0059FD2C49086018B300F1080141601E212078401C10FB01F080B211F04BFD264AF8
:2059FC001060A8B1082011F045FD244C206078B1062011F03FFD216808602168086838B108
:205A1C0000204860062011F035FD1D49086008B9072032BD11F0CBFF00B1002032BD00BF5A
:205A3C00D4250020500F0020540F0020440F0020D40F0020A4350020780E00203A27002099
:205A5C00FC350020340F002008360020980E00209C0E0020A00E0020A40E0020A80E002012
:205A7C00F83500201036002081360020803600206C0F0020700F0020680F0020183600206B
:205A9C00400F00202DE9FE4FDFF8FCB19BF800000024401E03284FF001080AD9103840F0B1
:205ABC00EE807A4B1878002112F0D2FB040000F0E78014B9002010F077F8606D744F417817
:205ADC00744DC806216D4CBF886CC86E0622016801F10806B11C01A811F04EFB3078C0F3AC
:205AFC0080108DF800004FF01E0A32786A4E02F00F0103292CD101A912F042FB002826D07A
:205B1C00606D807C012818BF032820D1296801A812F032FBFF281AD01AFB00FA286810F863
:205B3C000A205044411C386812F08AFA317888420DD028685044C11D386801AA12F07CFAF3
:205B5C0028685044062201A9C01D11F015FB89E002F00F000528FAD19DF800004FEA5219AA
:205B7C0001A912F00DFB78B3296801A812F004FB616DFF2820D0897C022918BF03291AFBC2
:205B9C0000FA0AD1286810F80A205044411C386812F056FA3178884264D028685044C11DC6
:205BBC00386801AA12F048FA28685044062201A9C01D11F0E1FA25E04878C10659D5607BF6
:205BDC0040F0020060731DE09BF80000022849D19DF80010286801AA12F08EFBFF2841D02D
:205BFC001AFB00FA286800EB0A014A7F012A05D00D30504412F0C8FA002833D040F20140F8
:205C1C0012F0CAFA606D4178C80632D5234924488A78510606D55FEAC97203D4216D41F21F
:205C3C000A4202E0216D41F204424A804A834A860280206D816C0A6802F10801826C1068DC
:205C5C00007903280ED1D1F80E0000281CBF088B002807D013481449144A01600121107818
:205C7C0006F03AFD606D4178C80602D5216D886C01E0216DC86E01680020087100E0A046C1
:205C9C004046BDE8FE8F00BFC80F0020D50F00206C0F0020680F002080360020C00C002082
:205CBC009A0F0020480F002071110000C70F00202DE9F047ADF1380D12F0BAF90DF004FB2F
:205CDC00071C00F0D98010F043FF84467E4800213C3030F80C6F002E40F0CA804FF6F876DF
:205CFC0006804760794C2170002585607868E061604611F013F904F150073846294612F0EC
:205D1C0093F9276204F03BFD02A811F084FA02A9284604F0BDFD02A96064012004F0B8FDFD
:205D3C0002A9A064022004F0B3FDE0640EF0D2F804A811F059F801208DF810008DF811007C
:205D5C00A8468DF826808DF825808DF824804FF4E1328DF827804C4B0A924A4F089304A925
:205D7C00079728460EF09AFBA06200287FD020212A4611F058FD2546A86A4FF4807205F140
:205D9C00AC0111F055FD41484246152340490090102001F0BBFF3F4942461020134601F020
:205DBC00B5FF3D4910204FF0FF3201F0AFFF3B4910204FF0FF3201F0A9FF1027DFF8E09013
:205DDC003848394A0097132349460190384601F09DFF3F4800784FF0040A10FB0AF080B229
:205DFC0011F0D7FD314C0146A16091B1F01D0FF0D5F82F49384604F1140200900623019186
:205E1C00494601F083FFC0B218B904F10C0011F03BF93C3565604FF47A60208002200EF0D8
:205E3C00A9FF0FF009F923490246384601F06EFF0FF002F920490246384601F067FF1F4925
:205E5C003846FB2240F6480301F060FF1C49384601F05CFF0FF0F0F803465246022019493F
:205E7C0000903846CDF8048001F050FF06E0FEE7491C0629FFF42DAF11F0D5FD0EB0BDE80B
:205E9C00F087C04675780100AD4A0100091F00201D160100B94001007D6101006547010081
:205EBC00395A010054A40100AC190020C8200020BCA10100D96C02102D6D02100D5202107A
:205EDC00397F0110B1930000B01F0020D8140020C10F00202DE9FC470546002000900DB994
:205EFC000FF062FE05F1500A6946DAF80060284605F098FD08B90720EBE00024DFF8D881F7
:205F1C00DFF8D891DAF804104A7A1820604301233718A3401A4209D0A97B39F811003880F7
:205F3C00002118F80420BA73F97302E040F6010038800021798007F118007860387B00F0E1
:205F5C00EF00387340F080003873A97B01290ED141F28830B860397B01F0F00141F0050133
:205F7C003973787B00F0F00040F0020017E0002C0CBF0221002100F0F0000843387324B96F
:205F9C0012F096F800F57A6000E00020B860022C797B0CBF0120022001F0F0010843787326
:205FBC00641C06F14800386106F16801032C7961A8DBA87B0024012805D1766312F078F8F0
:205FDC0000F57A6001E0B0687463286112F00CF9B064434881690978CA07816909784CBF25
:205FFC001F220F228B078169097848BF42F020024B078169087848BF42F04002010706F185
:20601C004C0148BF42F080020A704C70DAF80420907C00F0030005F13E024870137863F362
:20603C008200487052788C7062F3C3004870CC7040F010004870346505F13800F06574654B
:20605C00A87B012818BF042819D0DAF8080038B1B0F803008870DAF80820D2F80500306528
:20607C00DAF80C0038B1B0F80300C870DAF80C20D2F8050070651B4802685068F06505F1E8
:20609C003000B065184AC87D184B00F0EF00C87540F08000C87500F0F00040F00600C87539
:2060BC007266187838B148780A7840F0400002F0FE0248700A700E4A937848785A064CBF0F
:2060DC0040F0200000F0DF004870009805F038FC0020BDE8F68700BF506E0210F46B0210CA
:2060FC00D4A501006C0F002000204E00880E0020C00C0020F8B57C487C4D01782A788A423E
:20611C0000F0EF806A68002400E0641C8C4280F2E5804FF4D0736343134418790028F4D108
:20613C00E0B210F0C5FF0121017100224271426200F161018471012200F168034A711A71D3
:20615C00012400221A609A6000F1900602814281047480F8392082610277C283327000F51A
:20617C0092749A76227580271F739A730027FF22DF741A7600F20D13BE461F705F7083F8F6
:20619C0002E0DF7000F589734FF01B0C1F805F8083F805E0377100F1E7063770777000F178
:2061BC00EC063760776086F80AE0377337727773B773F7731F815F819F81DF8147F230536E
:2061DC00A3612760E7812777677700F5C6732273A27701279F720227DF7283F80EE083F8C1
:2061FC000CE0434F3F785F7383F806E084F80AE084F804E084F805E084F806E084F807E02F
:20621C0084F808E084F809E000F5B374394F84F800E083F800E03F88DFF8DCE0E780374FF7
:20623C003F882781BEF800706780354F3F88A780A4F80AC04FF4A477E7812782A4F80CC017
:20625C00E7822783A4F812C0A4F814C06783A783E78327846784A784A3F802C001271F71DD
:20627C0000240719641C042C87F87720F9DB0A704A708A70CA7004461F220A710021214A2A
:20629C0050186718407887F8FD00491C0829F7DB1D48186100213174A07911F08BF80646D2
:2062BC00A0790BF00AFE19480178307C717300F0FC0030740022B069F28100F0004040F49A
:2062DC00853040F04000B0612878401C2870C0B2012804BFA079A8702046F2BD00200FF015
:2062FC0063FC0020F2BD00BFD40F0020780E0020C50F00208C0F00208A0F0020980F0020BD
:20631C00960F0020C00C00204DE50110382700202DE9F04380490468804E824D0A68607D84
:20633C008846ADF1140D401E0B2800F28A80DFE800F09906097B6009350C14D11A14216906
:20635C00886804E02069816809E02169C86809680DF064FE0EF09AFDDBE02069C168022242
:20637C0000200A70D5E02169487C01280FD0C86809680DF053FE054620690168C0684A6A54
:20639C00406800218018401C09F001FE04E0C868096810F051FC0546284642E020694FF0B7
:2063BC0080590168D9F80072CA68786D00920A6901924A6A5A4F02928B684A6884463046B7
:2063DC003946E047002809F5007118BF6FF0050040F09F80206902680C689168206A00915F
:2063FC00D1680191516A0291CDF80C8053683A467DE02169087B01280FD0886809680DF00C
:20641C000DFE05462069016880684A6A406800218018401C09F0BBFD04E08868096810F0C9
:20643C000BFC0546284695E7206941684968CA7F12F0070F05D1097831F07F0701D1C9091E
:20645C0002D24FF0FF3064E04FF080590368D9F80002596AC06D0091CDF804805A68996AB5
:20647C009B6845E04FF080592169D9F8002248680968526C4068496A904709F50076002896
:20649C0018BF6FF0040044D1216930680A68C06A1169526A0346284698473068406A8047FE
:2064BC000828FAD0306840688047062818BF6FF003002ED12069036837689968386A009192
:2064DC00D9680191596A0291CDF80C80DA6A996A5B680DE020694FF080590168D9F80072E2
:2064FC004A6AF86D0092CDF804808B684A68314604462846A047D9F8B001006A014613206B
:20651C008847D9F8B00100690146132088476FF01F0005B0BDE8F083543600206062024063
:20653C00C0620240006202402DE9F04F824C4FF0FF0A00254FF0100BADF1240D84F834A02E
:20655C0004F1300984F832A065E00C2015FB0096E068690306AA042311F02EF906F11607C5
:20657C009DF818009DF8193038700698F375C0F38541032903D09621B1EB106F38D1C0F3C0
:20659C000140F8703878FF2830D0FE282ED07E282CD007A80EF09CF8E06869034FF088528B
:2065BC004FF4005311F008F964484FF4005650F8041D361FB6B2B1F1FF3F06F1885201D139
:2065DC00032EF4D810684FF00108414600F0FF03FF2B18BF8846491C000A0529F6DB1060BC
:2065FC00079810F059FB4644FE8001E0A7F806B038787C280BD0782809D0702804D0FE2814
:20661C0008BF84F8325004E084F8345001E084F833506D1CEDB2E078A84296DC94F833102A
:20663C00FF2920D194F83420FF2A15D194F832200025FF2A18D0521C92FBF0F14143521A56
:20665C0091B28A0002EBC1024A44978B002F08BF84F832A003D00A4684F83320022521462D
:20667C0091F8331000E00125FF2910D1002684F83360304606F0EAFA6178084360707E210B
:20669C0030460EF021FF2146E07891F8331094F83220FF2A14D1491C91FBF0F24243891AD8
:2066BC00C8B284F8320006F0D1FA61780843607094F83200FE210EF007FF204690F83310CF
:2066DC0084F8311094F8332010462F46810001EBC0014944898BA570781EE18602D0401E26
:2066FC0023D025E0172923D91046C91F01AA89B207F006FE9DF80F00C00816D30020009026
:20671C00BDF81220E18E94F833000323891AC91F01AA89B204F05AFC50B9BDF8101039B19F
:20673C009DF814000CF042FE02E0002003F04AFC09B0BDE8F08FC046A02100200020001128
:20675C002DE9FE4F9B4615468946824611F019F97B49019008680CAF504508BF48687B4C81
:20677C006FF0010828B1B03010F0CCFD002840F0D6800FF019FD061C00F0DB8004F5C470B6
:20679C0011F0F9F80023B4F9B000C6F80C90401C86F832306FF31F30A4F8B000C6F808B062
:2067BC00B4F8B00030866748C6F810A097E80C0020210027B8461940104006F1180383E877
:2067DC000300424686F8332006F1200383E88001E8683064287C86F84400286870632879ED
:2067FC0086F83800A868F0636869B064A869F064287F86F85000687F86F851002F7C27B964
:20681C00EF6817B1012086F844002F795FB999F80C0000F00F00022805D1012086F8380027
:20683C00D9F808007063484608274568002D18BF002F70D100886FF30900B0F5305F18BFB4
:20685C00022506D196F83300082540F0100086F8330006F1180090E80C00414606F118070F
:20687C0045EA0200194387E80300D4F8D400824507D194F8D800410824BF00F0FE0084F8C4
:20689C00D80031480768002F39D004F19C000090D4F8A410D4F8A82004F194052B4630463A
:2068BC00B84710F1030F10D0B6F93010B4F9B020914207D0B4F9B01001F6FF716FF31F312E
:2068DC00A4F8B01010F1020F1BD010F1030F18D096F83300B6F9308040F0800086F83300C7
:2068FC0000278AF8F4702868864205D0F068007B00F00F0002281CD10AF012FB19E06FF0FA
:20691C000200B4F9B010804601F6FF716FF31F31A4F8B01005E07F1E2846FFB285E76FF045
