:20000000003C0120C124010039FB021039FB021039FB021039FB021039FB021039FB0210F9
:1C00200039FB021039FB021039FB021039FB021039FB021039FB021011FB021002
:20003C0038B586B004468DF805104FF6FF720120ADF80220090ADFF80859ADF800000223EA
:20005C008DF806108DF8043069462A78204617F0EDFD162803D12978204617F0E3FD07B0D1
:20007C0030BD3EB504000D461ED0DFF8D8080068224617F0D3FDFF2815D000200090002302
:20009C0001AA294620460DF02BF960B99DF8040000F0F0F8C00606D59DF8040000F0EAF80D
:2000BC0010F0040000D001203EBDFEB5164615244FF6FF7290420D4615D100208DF8040082
:2000DC00DFF87C789DF80400B97988421AD23246294600F03AF800B100249DF80400401CE5
:2000FC008DF80400EEE717F095FD50B100F0FCFA40B99DF804003246294600F026F800245B
:20011C0000E014242046FEBD7CB50D46044606214C43164600F081F8A8B900F079F890B936
:20013C009DF80700002E14BF054320EA0505E9B2814206D08DF807506A460821A0B215F06A
:20015C008BFC012076BD002076BD2DE9FC410646344606235C438846154600F05EF80028DD
:20017C0053D100F055F800284FD1DFF8D477F879800016F055FE040003D1042015F0B8FA9B
:20019C0043E0F979E03689062246090EB0B215F04FFC002835D1204600F058F85FEA0800B3
:2001BC000ED1FA799206120E0021204616F051F838BBFA7992000021204616F0A9FC16E023
:2001DC00214600F030F858B9280004D02146002000F029F810B900F036FB16E0A0F80080E7
:2001FC008178A9420DD085700DB900210180204600F02CF8F97989062246090EB0B215F064
:20021C002BFC00F020FB012000E00020BDE8F6810622FF21684616F01CB820346A46082156
:20023C00A0B215F005BC70B5DFF81437DD79002200E0521CD4B2AC4206D231F824608642BC
:20025C00F7D101EB840070BD002070BD10B50021DFF8EC260AE030F82130DB4320F8213017
:20027C0000EB8103491C9C78E4439C70D3799942F1DB10BDE0B50623584320306A46082105
:20029C0080B215F0D5FB10B99DF807000EBD00200EBDDFF8AC06007808210CF0FDB838B558
:2002BC000025DFF89C4619E0E069062313FB05F300EBC5022033082198B215F0B9FB58B199
:2002DC00E0690622FF2100EBC50016F021FCE06900EBC5010022CA716D1CEDB2A1798D4236
:2002FC00E2DBE07C10B1BDE8314032E231BDF8B5DFF84C16DFF8503689791E680C460A4683
:20031C0000E02A46D5B23DB1551ED2B2324412F8017C8742F5D12C46E4B220464D1E07E0B9
:20033C001718165C7F7817541A680244401C5670A8421A68F4DBAC4204DABDE8F8400520AB
:20035C0015F08ABBF1BD38B500200024DFF8F05503E0E0B200F008F8641CAA79E1B29142CE
:20037C0001D20100F5D032BD2DE9F84F83465D46062313FB05F58EB005F1200701AA0821B0
:20039C00B8B215F055FB002874D10622FF2101A815F05FFF00286DD1DFF8A465F079800092
:2003BC0016F03EFD5FEA000904D1042015F0A0F90A2061E01C22FF2103A816F0A9FBF2796E
:2003DC009200FF21484616F0A3FB05F123040AAA1021A0B215F02CFB60B91022FF210AA880
:2003FC0015F037FF30B99DF80A0001A900F0010017F00CFC082200F042F801AA0821B8B2E2
:20041C0015F02AFB8DF8000003AA05F1210000F03AF8074605F1220003AA00F034F8804637
:20043C0003AA1021A0B215F017FB044605F1240003AA102100F028F88246253503AA042113
:20045C00A8B248EA070715F007FB2743F1799DF800504AEA0707074389060BF1E0034A469C
:20047C00090E98B215F0F8FA0743484616F0D0FC3D4300E0002528460FB0BDE8F08FFF2168
:20049C0001A816F045BB1C2180B215F0E5BA2DE9F84187B0FF208DF80000DFF8A454A87964
:2004BC0016F0BEFC040004D1042015F021F90A2030E01022FF2103A816F02AFBAA79FF219F
:2004DC00204616F025FB0622FFF7D9FF03AA1021022015F0C1FA064603AA1021032015F06C
:2004FC00BBFA06436A460121042015F0B5FA0746A9792246052015F0AFFA054601AA062171
:20051C00062015F0A9FA804600F09DF93E432E4348EA060008B0BDE8F081DFF824144088D6
:20053C00097815F0F9B9F0B5A9B006460D46144617F070FB08B91420ABE0A42200216846E9
:20055C0016F0E6FAADF800600DF12607DFF8F063F078717B8DF80400B07B8DF8A000279853
:20057C0061F30000717B27908A074CBF0222002220F0020010432790CA064CBF4FF480725A
:20059C00002220F48070104327908A064CBF4FF40072002220F40070104327904A064CBFB4
:2005BC004FF48062002220F480601043279049074CBF0421002120F0040008432790F07BB8
:2005DC0002280CBF01200020787417F01BFB412807DBF07B00B108209DF8991008438DF823
:2005FC009900707CB8B10121B974202206F188010DF1390016F096FA202206F1A8010DF133
:20061C00590016F08FFA202206F1C8010DF1790016F088FA00E0B874307B8DF8050090B153
:20063C00DFF82873102207F110010DF1060016F079FA9DF89900082805D1102239460DF191
:20065C00160016F06FFAF07A8DF8260028B11022BF490DF1270016F065FA307948B1022D76
:20067C0018BF032D03D1279840F002002790012100E000219DF899000143B0788DF89910F0
:20069C0000B1042001438DF899106846214617F0B5FA29B0F0BD2DE9FC41154615244FF67A
:2006BC00FF72904288460DD10027A54EB179F8B2884216D22A464146FFF726FD00B10024AA
:2006DC007F1CF3E717F0A6FA50B100F00DF840B99DF804002A464146FFF716FD002400E056
:2006FC0014242046BDE8F681002100910023417901AA01F00101801D0CF0F2BD70B5044640
:20071C000D4606204543082B88B0164603D1300758BF223500D521351C220021FFF7B0FE4E
:20073C0001AA1C21A8B215F083F980B99DF81E00C01F0A280BD29DF830000090F20801AB05
:20075C0002F0010206F00101204617F053FA08B070BD38B517F04AFA0024794D0FE0E8698F
:20077C000622FF2100EBC40015F073FD28B9E86900EBC401002017F035FA641CE4B2A87982
:20079C008442ECDB31BD3EB50C46002501460095002301AA20460CF0A3FD38B99DF8040022
:2007BC00FFF768FDC00601D401203EBD00203EBD2DE9F041674F064638688846154603E0FB
:2007DC000189B14226D000680028F9D10C2016F027FB040019D0268184F80A8000202060A2
:2007FC00E07245B10821284615F06AFE606018B900F029F80AE06060396811B93C6004E05A
:20081C00014608680028FBD10C600CB9152018E00120E07217F0E2F908B1002011E02A4624
:20083C0041463046FFF77FFE04464548806900281CBF4368002B03D0002200213046984728
:20085C002046BDE8F081204616F0E2BA38B505464048046803E02089A84204D02468002CCA
:20087C00F9D1012032BDE07A012807D100F05CF820B13348007804210BF00EFEE17A491C33
:20089C00E1722846C9B200F002F8002032BD38B5022904462A4D02D003290DD01EE042F61D
:2008BC00C921FFF7BDFB02001CBFA869002818D04368B3B105210CE042F6A621FFF7B0FBC5
:2008DC0001001CBFA96900290BD04B684BB102460421204601B0BDE830401847BDE832404C
:2008FC0000E031BD10B51B4A1468002101E0214624686CB123898342F9D1206800290CBF9F
:20091C0010600860606808B116F082FAFFF79BFF002010BD024604200E49096819B10B89D1
:20093C009342FAD1C87A70470A48006828B1006818B1C17A0029FAD1704700207047000081
:20095C00481D0020680F00205C340020C0310020F03100206034002038B5264C049D207019
:20097C00E2712372A1716572C80016F059FAE061D8B1A279D200002116F0CAF8A07916F0AA
:20099C004FFA206208B9E0690DE0A2791A4D002116F0BEF8A07916F043FA286050B9E069E4
:2009BC0016F036FA206A16F033FABDE83240042014F09EBEA279002116F0AAF804F1E800CC
:2009DC0017F008F92178062013F09AF9FFF767FC2A68A179052015F02BF848B1A179002019
:2009FC0004E02B680A1A521E1A54401C8842F8DB31BD00BF481D00205C3400202DE9F84F2A
:200A1C00054688B0A978DFF83C67002710294FF0060A3CD8DFE811F0110092039203920341
:200A3C0092033C00CF0092039203F5021501000147039203CB020D038A036878002826D17A
:200A5C0017F0C4F8044617F0BDF8054617F0B6F88DF8000022461021022014F0FDFF2A4601
:200A7C001021032014F0F8FF6A460121042014F0F3FF9DF80000012818BF032807D1012066
:200A9C0017F098F802460621062014F0E5FF55E368780028FBD195F80CB06C890090002329
:200ABC00E97801AA01F00101281D0CF019FC00284FF0010875D19DF80400FFF7DBFB8146E3
:200ADC00BBF1080FF07908BFB846800016F0A8F9050003D1042014F00BFE2FE370789DF849
:200AFC00041002280CBF0120002000905B464A462046FFF703FE1422002102A816F008F86B
:200B1C009DF804001AFB00F0243002AA102180B214F08EFFB0B91022FF2102A815F099FB29
:200B3C0080B99DF804001AFB00FA0AF1250306AA042198B214F07CFF02AA09F001012046EA
:200B5C0017F034F8F1799DF804008906E0302A46090E80B214F06CFF98B92846FFF776FB56
:200B7C00BA4609E005EB8000018819B18278204615F0D2F90AF1010AF1795FFA8AF0884270
:200B9C00F0D3707A30B95FEA897003D53178204614F0C2FE9DF80400FFF7A9FB284616F00F
:200BBC0037F97078022805D1B8F1000F02D0204611F008F8C2E2A888FFF794FE16F0F2FFBD
:200BDC000028F7D1307D012808D1FFF7BCFB306A37750422002115F09BFF17E0707D012874
:200BFC0003D1FFF754FC777510E000240AE0306AE5B2415D012904D1E0B2FFF7B5FB316A34
:200C1C004F55641CE0B2B1798842F0D3502015F083FAFFF744FB91E216F0E0FF00280CD0C8
:200C3C00B06900281CBF0468002C07D0286900906B7B2A7B6989E81CA0477EE26889012111
:200C5C0071E26878002840F0EB80A879C10740F1E7800822002105A815F05AFFA88816F075
:200C7C00D9FF04006FD0D5F81480B8F1000F27D00622002108F1110015F0EBFA58B30622BD
:200C9C000021404615F0E5FAC8B998F8100000F00109BB460BF1010B88F811B0009700238E
:200CBC000022494608F111000CF01AFB00285FFA8BF002D10028EDD101E000280BD16F61E2
:200CDC00607900F001008DF81A000622A11D05A815F028FF24E0D5F81480B8F1000F1FD0C4
:200CFC0098F8100000F001008DF81A00062208F1110105A815F016FF6079012805D10622AE
:200D1C00A11D04F10C0015F00DFF062208F11101A01D15F007FF98F8100040F00200607149
:200D3C00A879410720794CBF40F0020000F0FD002071A879010720794CBF40F0200000F0CD
:200D5C00DF00207106E0FFF7EFFD18B1307804210BF0A2FBA9799DF81B00890801F00101BB
:200D7C0008438DF81B00A97900970A074CBF0821002108438DF81B0000239DF81A1004AAD2
:200D9C0005A80CF0ADFAF0B1002400E0641CB179E0B288420AD2F069E3B20622FF2100EB3F
:200DBC00C30015F056FA0028F0D009E0DFF89823107800281DBFDFF89413086804780C4654
:200DDC008DF8104019E06869B8B19DF810001AFB00F023306A46102180B214F029FE60B99B
:200DFC001022FF21684615F034FA30B99DF81A0005A900F0010016F009FF9DF81000B17990
:200E1C00884280F0D280F079800016F009F804001DD1042014F06CFC0A27A888FFF762FD02
:200E3C00B06900281CBF4368002B0FD06A78A888012198476878002808D1A879C10705D50E
:200E5C00B369A8885C683A460321A0476EE19DF810001AFB00F0203005AA082180B214F084
:200E7C00FBFD9DF81000FFF742FAF2799200FF21204615F04DFEF1799DF810008906E03006
:200E9C002246090E80B214F0E7FDF0699DF81030082205A900EBC30015F044FE6A6992B18C
:200EBC00107C002302F1110100F0010016F076FE6A6942B19DF810001AFB00F02330102103
:200EDC0080B214F0C9FDAA6842B19DF810001AFB00F021301C2180B214F0BEFD2A6942B146
:200EFC009DF810001AFB00F022301C2180B214F0B3FDEA68AAB19DF810001AFB00F024300C
:200F1C00102180B214F0A8FDE86800F110029DF810001AFB00FA0AF12503042198B214F00C
:200F3C009BFDF07C08B1FFF714FCB5F80480706A4FF6FF7948B906F1160100910223844A77
:200F5C004946012016F026FE7062716A11B3FF20039002220292019707A800900DF11203D6
:200F7C00F28A404605F0C4FC68B99DF812009DF8131000EB012290B228B1706A418992B20D
:200F9C004046FFF792F8F28A706A0023494616F0FDFD7062204615F03BFF307A0028A888AE
:200FBC007FF43CAFFFF752FC3AE7152735E7687806281BD1A88816F02DFEB8B1B17C0129DF
:200FDC0004D013D3032907D00CD30FE04179A8880022FFF7EDFB09E00022002140F20940D9
:200FFC0003F026FFA888052116F0CCFDB06900281CBF4368002B03D06A78A88802219847BF
:20101C009BE000970023E97801AA01F00101281D0CF066F90028F3D19DF804001AFB00FA4C
:20103C000AF1250305F10C02042198B214F014FD83E0B06900281CBF4368002B03D0A88891
:20105C00002200219847707810B9A88805216AE0A88816F0DFFD040070D0A87AC10712D5DA
:20107C00009700236179002201F00101A01D0CF037F900281EBF60790028012803D0E86870
:20109C00C0F3402028B1F07B022807D1A87A010704D4A888032116F071FD4FE06179A888D8
:2010BC0005F1080227E02F7BAD88284616F0B2FD040042D016F092FD00283ED10090002376
:2010DC00617901AA01F00101A01D0CF009F928BB9DF80400FFF7CEF807F00C07042F11D06B
:2010FC00082F0BD00C2F0FD100F0090109290BD0617900222846FFF75BFB1EE010F0090FD4
:20111C0002D1F5E7C107F3D501220092A37C9DF8041002462846FFF7F1FA0EE07078002862
:20113C00E6D10521284616F029FD06E0FFF7FCFB18B1307804210BF0AFF90127384609B0B1
:20115C00BDE8F08F481D0020C53400205C340020CE9701002DE9F84F012013F0F9FD0128FB
:20117C0016D1DFF860663078002116F003FD040004BF002014F0BCFA00202072201D0BF075
:20119C009BFF04F07BFE050003D1812016F0EEFC13E30120687105F59777DFF82C06DFF8EA
:2011BC002C264178491C4170A879A0724020317811700BF069FE2860616D4A78206DD10657
:2011DC0019D5816C0A681179032904D00CBF0120002014F08DFA206D816C90F86C000A68A5
:2011FC0002F1080A01281CBF002014F081FA216D486F29683CE0C16E0A681179032904D00E
:20121C000CBF0120002014F073FA206DC16E90F898000A6802F1080A01281CBF002014F0BA
:20123C0067FA216DDFF8A825D1F8A0002968DFF8A435C8609AF82660032E19D8DFE806F036
:20125C0002050C0F00F5B06001E000F53470C8601088F887118808E000F5355001E000F6C0
:20127C00B870C8601888F8871988A5F8741102E000F5B060C8602868DFF85C65C168DFF8E9
:20129C005C8501F59071C16006229AF80000C0F3801038700AF1020105F5947015F042FC55
:2012BC0004220AF10E0105F1240015F03BFC306895F8069000F10C0304220AF10E0103EBB3
:2012DC00491015F02FFC3068AB7900EB431303220AF1120103F1100015F024FC05F12C09E5
:2012FC009AF8150089F8020002220AF1160105F1300015F017FC02220AF1180105F13200D4
:20131C0015F010FC02220AF11A0105F1340015F009FCB9F80800688402220AF11C0105F15B
:20133C00360015F0FFFB99F80200B9F80A10400089F802000901B9F80400A9F80A10400081
:20135C00A9F8040089B2B9F806004000A9F8060003046A8C521CDB0B5A438A4201D280B234
:20137C0030B998F8000080210BF096F83B2131E105F12E01284616F0F5FB0520A8812846FB
:20139C0016F0ECFB05220AF11E0105F1610015F0C9FB9AF82300400989F8000016F0DAFB89
:2013BC006882618D401AB88105F161019AF82300DFF82C7400F01F0089F80F004FF01C0A1E
:2013DC00284616F0C3FB616D4A78206DD1064CBF816CC16E41F62102086800210171A97925
:2013FC0038681AFB01F142520021AB791AFB03F303445980AA791AFB02F210444160616D37
:20141C00DFF8E0034A78D1060DD5DFF8DC138A7851060AD5DFF8D423138841F20A418B42C9
:20143C0008BFDFF8CC03C5F89C01D5F89C11284688473A68A97902F10E031AFB01F1585497
:20145C00AA7938681AFB02F202440020D0733968A87901F10E021AFB00F0115C89F80D1027
:20147C00606D4178CA061DD595F8960108B914F03FF9A97938681AFB01F1014495F89601B5
:20149C00421E0A74A87939681AFB00F00844002141743A68A97902F112001AFB01F1002277
:2014BC0042522BE0A97938681AFB01F10144206D90F840200A74A87939681AFB00F008445D
:2014DC00216D91F841204274206D3968AB79403001F112021AFB03F34188D15205F5CB71CD
:2014FC000078012200F0030082400A70226D92F84000800814BF0120022008713968A879D4
:20151C00DFF8F0B201F1140231681AFB00F301EB4010D050A87939681AFB00F00844B6491F
:20153C008161DBF814000078C107DBF8141009784CBF1F200F208A07DBF81410097848BF85
:20155C0040F020004A07DBF81410097848BF40F040000A073168AA7901EB421348BF40F09A
:20157C0080001872A979306800EB41120B2050723168AA7901EB42100421A04A81721078DC
:20159C00012806D13168A87901EB40120121D17207E0DBF824003168AA79407801EB42133F
:2015BC00D8723168A87901EB40121F2111763068AA7900EB421100204876A87916F0C2FA4C
:2015DC00AA79316852018850AA7931685201885820B90721284616F0B1FAEEE08848AA7938
:2015FC00016801EB021016F0A5FAA8793168844B01EB4012196801EB00105060A979306815
:20161C0000EB41125168C9F83C10AA7952018158C9F84410042198F800000AF03DFF616D8D
:20163C004A783868D10648BF02210AD4A9791AFB01F101440A7C02F00302022A14BF04213E
:20165C000621B9F8042095F806C04FF4C8738A18698AAA615143B1FBF3F35B1C6B611AFB83
:20167C000CFCD5F800E06044DEF80CC040F6C41101FB02C2D21AA2F5A8628260AA79386856
:20169C001AFB02F283189A682B689A6000F10C03AA791AFB02F20C309B5C03F0EF038354E0
:2016BC00A8793A681AFB00F002F10C030C321B5C03F07F031354A8793A681AFB00F002F1F8
:2016DC000C030C321B5C03F0F00343F002031354AB7938681AFB03F31844427B02F0F002D9
:2016FC0042F001024273AA7938682B681AFB02F20244906818613068AB7999F802C000F1CE
:20171C001402686940005B0111FB0C0000F5F660D05095F8960104280DD13068AA7900F1CD
:20173C0014034FEA421C143053F80C20AB795B0102F56162C2503068AA7900EB4210C37CA1
:20175C0003F0F00343F00403C374DBF830003268AB79006802EB431CB9F8062042436423BE
:20177C00B2FBF3F35943A1F59661CCF81C103068A97900EB4110C27E02F0F00242F004024F
:20179C00C276A97938682A681AFB01FA00EB0A01516028460E2116F0C9F91A490720087083
:2017BC00204612F01FFEAA790021204616F0BAF928681549154A41618261BDE8F14F02F07C
:2017DC00ADBE00BFD50F0020780E0020D70F00208E0F0020900F00209C0E0020C70F0020D7
:2017FC00980E002081010210C00C00209A0F00204DE50110889E0100980C0020CC0F002095
:20181C00A40E0020C80F002085AF0000020480802DE9FE4F04460020009000250CB913F05F
:20183C0067FF04F1500841F62300D8F8007038807D8002223A737A73694620460AF040F885
:20185C0008B9072051E2009901B1B860B8682061D8F80400407A12F081F825302076207EBB
:20187C00B873FD73D8F80400017D022904BF002013F03EFFD8F80400007D012802D13D7413
:20189C007D7406E083280CBF0620022038742020787404F12406DFF858A4DAF83C00416915
:2018BC000868717901EB41010844B0F801207A82D8F80400417848060AD5607DC10604D53C
:2018DC00E07F40F04000E07702E040F04000607507F15C0904F1300089F80050B17E890094
:2018FC0001F0040189F80010B866607DC10656D5D8F8042051788A060CD500F0FE00607567
:20191C00D8F80400417811F0030F03D1E07F00F0FE00E077607D16F001F9A075421C387C8F
:20193C00C0F38001002392B200F0030016F0F2F8A0831E20A28B02F59B7393FBF0F01E21CD
:20195C0001FB1030C0B208B1C0F11E00821802F59B7262831E20A28B02F5967293B293FB75
:20197C00F0F001FB1030A283C0B208B1C0F11E008018A08380B2E27D618B521E504340187D
:20199C00608307F13005608BB43080003866062089F80300E17F41F00801E17720E040F062
:2019BC0001006075D8F804104A78510744BF40F002006075607D16F0B1F8A0750023401C0D
:2019DC0082B2387CC0F3800100F0030016F0A2F8A083A08B00F59670A0833D6689F8035059
:2019FC00A17D207D61F3050007F18801207508700322607D48708A70B07E800000F00400D3
:201A1C0040F003008870F27ED20002F00802104388700020C870C7F89000B08BC0F30B0056
:201A3C00B083D8F80410CA7D40EA0230B0830022617D01F0FE0120460AF000F90197002795
:201A5C001EE01C2010FB07F004EB000B01991C220BF1640015F066F80BF16C000521017199
:201A7C007F1CA28B92000260FFB2DAF83C104A697379116803EB43031944B1F80120428189
:201A9C00E07D401E8742DCDB019F20460DF0A2FDE07D012809D013D3032808D03EBF04F113
:201ABC0064007860C8F818500AE07D6008E004F16400786004F18001C8F81810C8F8345024
:201ADC0041F6240038860021798607F13C05B868618B00EB8100B8630221822028706970AF
:201AFC00002194F82100E97000F03F00A870D8F80400807D012818BF022805D100F07F001C
:201B1C00401E2871697106E083280CBF062002202871202068714FF0000BDAF83C00416980
:201B3C007279086802EB42021044B0F80110E980C7F86CB0D8F80400417811F0030F20D01C
:201B5C0015F0E4FFF866DAF818000078C107DAF8181009784CBF1F200F208A07DAF818107A
:201B7C00097848BF40F020004A07DAF81810097848BF40F040000A0748BF40F0800089F8E5
:201B9C00140089F815B0D8F804105A4A897C01F0030189F81510B07E800000F004000143C1
:201BBC0089F81510F07EC00000F0080040F01000014389F81510107848B199F8140041F0BC
:201BDC00400100F0FE0089F8151089F81400E07F15F0A4FF84F82000204615F093FFE07F80
:201BFC00C10638D5D8F8040094F820204178521C88074EBFD21EF07F12182879C0F3800134
:201C1C000023D2B200F0030015F084FF30801E22308800F59670C0F11E0190FBF2F21E2066
:201C3C0000FB02113171D8F804104878810731884CBF00204FF49B704018308070803188C9
:201C5C003279B86B5218A63200EB82007867022089F8170003E0C7F874B089F817B004F14F
:201C7C003000C7F8800007F18400D8F804104A78510707D504F13802026099F8150040F01C
:201C9C00200007E01C490A685168016099F8150000F0DF0089F81500A17F94F8200060F306
:201CBC000501A17740F60B002882A5F812B0DAF83800008880007865DAF8380000880028F7
:201CDC001ABF0721297728770221697794F84500E883D8F804104878810744BF0120E883AE
:201CFC00009808B109F07AFD0020BDE8FE8F00BF889E0100880E00206C0F00202DE9FC4725
:201D1C00D44C0F460546F80B80F006826078DFF85883B90F80F0AA81B90880F09D81F90AAD
:201D3C0080F00281390B80F0CC80380907D2F80FC0F0288227F080470EF0D0FF22E215F065
:201D5C00C0FA814614F098F9002800F0B480082015F084F9002840F0AE80802015F07EF9B9
:201D7C00002840F0A88068460CF062FC012803D10098002800F09F8094F83102002840F0DC
:201D9C009A8000250126E8B214F0AEFE48B1837A3BB1867290F9090006FA00F0C0B212F0A7
:201DBC00A3FD6D1C032DEED3032084F8200004F5C47015F080FA484615F0A0FED348002511
:201DDC002A460168056050F8081CD14940F8085C04F15C0014F070F840460068006B8047AA
:201DFC00A168401A010BA06AC1F1FF3282422CBF08444FF0FF30A06294F82C0020B12069EE
:201E1C00A16AB1EBC02F25D914F046F9294600B13146081C1BD0BF4840F60901018045809C
:201E3C00417B06F00F0221F00F010A434273017B05F00F0321F00F0143EA010202732946E8
:201E5C00416014F0CDFF418811F4406FFBD084F82C60A56211F0BCFACE48294605600220DB
:201E7C0013F0CAFE022013F07BF911200AF0EEFE207818B96068483015F05DFAC648007840
:201E9C0010B90E200AF0E2FE94F82D0020B184F82D50052013F064F9C048606284F8205097
:201EBC00B4F9B000B4F9B210884214BF022007200DF0D2FB02E0484615F020FE27F00807D1
:201EDC003AE720B1042013F04BF900206070656812F0EEFC38B12846ED696FF480710022BD
:201EFC004FF00073A847E06858B140460068006B8047E2686168801AC860000BC860002686
:201F1C00E660A74904F15C00002213F0D5FF0221D4F89C0084F8201018B104F1DC0015F04F
:201F3C001CFA27F4006707E715F0CBF9064614F0A3F8D4F894100028894600F084800029C7
:201F5C0000F081809749042504F15C00002284F8205013F0B1FF304615F0D0FD04F5C470E4
:201F7C0015F0A9F940460068006B8047E0604FF0010884F80180284613F00AF9D9F81000A4
:201F9C006060D9F81000416AC90803D3036A29460022984740460FF0B5FD606880F8158049
:201FBC0060680AF0CFFF6568D5F808A040F60A02D01F564600F1010C00E01E46736833B165
:201FDC0019888A4203D0884218BF8C45F5D100217160727B08F00F0322F00F021343737325
:201FFC00D9F80C201288904224D06046904221D02B8E03B3696305F13002518095F83C0002
:20201C0001F00F0320F00F00034385F83C3095F83D0008F00F0320F00F00034385F83D3030
:20203C007260707B01F00F0520F00F0045EA0001717300E0E160504614F0D2FE51464046E7
:20205C0013F0DAFD02E0304615F058FD27F4806798E0C046E00F002006F084FDD4F89C006A
:20207C0008B927F002078DE08C0100104E4A116841F08001116020B1042013F071F80020A4
:20209C00607015F01EF98246D8F85400016804208847D0B1287DC0B1A068B0B18146D8F859
:2020BC0000002E69006B8047A0EB09002861000B2861B04202D280194008286140F6C4114F
:2020DC0081422CBFB0F5967F2961504615F016FD12F0EEFB80B1EE6928466FF480710022ED
:2020FC004FF00073B047D4F89400002808BF47F0020701D00EF0F2FD2846AD6900214FF0EA
:20211C0080630A46A84727F000573BE014100440E11F0100A433002015F0D3F8D4F8AC60F0
:20213C0066B306F1280106C90A234FF0E0450B40154008BF002B21D106F1280191E80003CA
:20215C0006F1280595E8060006F1280322EA090221EA080183E8060015F0D0FCB16879B1EA
:20217C00B9F1000F08BFB8F1000F09D03069B6F93010B5684B464246A84701E015F0BEFCE5
:20219C0027F4804727B104F1DC00394615F0E5F8BDE8FC8700000460F29C01004DB400001B
:2021BC0081AD000075600100CC2108402DE9F84FDFF84C54A9780024FF2904BF002013F0A3
:2021DC0097FAA87814F04AFC054605F1680605F5C97A3168086805F1900708B1EC8311E04D
:2021FC00B07B002804BFB07E00280BD13978002904BF9AF80000002804D1287F012804BFBC
:20221C00688CE8832989E88B4118491C6981284615F070FC01281EBFDFF8E803017801292C
:20223C0003D12989EC83491C69814FF6FF79B07E01280DD1B28B6989288915F057FC38B12B
:20225C00298968894A1C93B298422FD0B08B23E0387801280DD17A886989288915F046FC5A
:20227C0038B1298968894A1C93B298421ED0788812E09AF80000012818D1BAF802206989E7
:20229C00288915F033FC88B1298968894A1C93B298420BD0BAF8020092B2904206D04844D5
:2022BC00688180B215F01EFC4844E8839AF80000012813D12889BAF80210401C80B2884265
:2022DC000CDB9AF805408AF8044002208AF800002346A979224600200AF078F805F59A7138
:2022FC00087920B128890021401CE9836881B07E012813D12989B08B4B1C9BB298420DD159
:20231C00688115F0EFFB074605F12E008188308C01FB070728460DF0E1FB02E005F12E013B
:20233C008F88E98BDFF8E092481C474340F6C41808FB07F200922A680098D368C318D360AC
:20235C00B24A106803789B09032B23D199F80F20AF48D3070AD5002202804FF4C873688A28
:20237C007843B0FBF3F35B1C6B611BE00288521C028092B2012A03BF05F59A70C08800F2CE
:20239C00DC50688A78434FF4C872B0FBF2F0401C686107E0688A78434FF4C872B0FBF2F279
:2023BC00521C6A61AF6185F820104FF01C0B994FAB79386800F108021BFB03F3D1582A6837
:2023DC00116100F10801AB79D26868691BFB03F3121ACA503868AB7900F108021BFB03F329
:2023FC00D1582A68916000F10C02A9791BFB01F10C30535C03F0F00343F0020343543968AB
:20241C00AB798A1C1BFB03F30021D1529AF8040008B913F06DF93868AA7900F110019AF86F
:20243C0004001BFB02F240088854A87939681BFB00F00844002141749AF80400042813D1BE
:20245C00A87939681BFB00F001F110021031135C9AF8082043EA82030B54AA7938681BFB40
:20247C0002F20244202050743968A87901F112021BFB00F0002111526749A8790A6802F17A
:20249C0014034FEA401C143253F80C00AB79D5F814C05B0100EB4C00D050B07E02280DD129
:2024BC000A68AE7902F11403760114329859AB7995F82E605B0118FB0600D05005F12E02B5
:2024DC0099F80F00C30759D53868AE7900F108041BFB06F60830A359AC791BFB04F4A3F573
:2024FC00A86303513868AE7900F108041BFB06F6A3592C68A36000981B1A23610868AE7910
:20251C0000F1140476011430A359AC79640103F5F66303519AF8040004280BD10868AE797B
:20253C0000F1140476011430A359AC79640103F5616303510868AC7900F1140364011859B2
:20255C00C5F83401354B186B0C68AE799288006804EB461642436424B2FBF4F408FB04F069
:20257C00A0F59660F0612E480278012A30D10868A97900EB41120120D07230E0042C0BD1F8
:20259C000868AE7900F1140476011430A359AC79640103F5616303519AF804000B68AE79FE
:2025BC0004280CBF4FF4AA504FF4E66003F114047601A359181A938808FB03F3A3F516735C
:2025DC009842BFD30821284615F0B8FA012015E0586A0968AA79407801EB4213D872A87955
:2025FC0039682A681BFB00FB01EB0B00506007210C48017028460EF033F80020BDE8F28F0A
:20261C00780E0020D10F0020980C00203C0F0020B0340020980E00209C0E0020889E01000E
:20263C00CC0F0020C80F00202DE9F04F0F46780689B027D5DFF808241078002115F09AFAEA
:20265C0004001FD0DFF8FC0301688847054614F0AFFB6168884204BF40F2014015F03EFA5E
:20267C0000202072201D0AF027FDDFF8DC130A6828469047204611F0B5FEFF223C212046B6
:20269C0015F050FAF80508D5022014F040FE08B10CF0B7FA87F48070CFE1B80604D50EF07B
:2026BC00FAFD87F02000C8E1F8070CD514F080FB30B100218160DFF89403006800B1804737
:2026DC0087F00100B9E1380704D50FF06AF887F00800B2E1F8060FD5002100220023069162
:2026FC00059204910393029101920091022015F0F1F987F01000A0E1B8070FD50021002345
:20271C00069105910491039302910191009101223C2015F0DFF987F002008EE179074FF08C
:20273C001E08CB4EDFF82CA340F1CD80CA480022002108920791007815F01CFA0446C748A7
:20275C008178FF2904BF002012F0D2FFA07A14F085F905469AF8000095F82E91002805F59F
:20277C00947B69D0606D807A022818BF032807D130680D3015F0AAF910B93068C11D0791D6
:20279C005946484615F09EF9A0B3606D807C3368002818BF012804D11946584615F08EF917
:2027BC0004E05A464946184615F038FAFF2843D018FB00F83068404406225946C01D14F04C
:2027DC00B1F9306810F80810404400F1010BC01D41F0020908900622616DC87A00F0010020
:2027FC0085F82E01606D00F10C0105F5947014F099F921E05946484615F05CF9E0B1306801
:20281C005A46494615F00AFAFF2815D018FB00F8306840440D3015F059F958B93068404470
:20283C000D3015F053F9002801BF30684044417F012901D149F0020905F12C004B460178BE
:20285C0006914289120905920122698C0491C0880899029140080390CDF800B0079801909F
:20287C000020A97915F036F9D5F89C017C498842A8790CBF0021012115F018F97948AB79A3
:20289C0002682C214B43134401221A73AB7904684B4323445A73AB7904684B4323449A73EC
:2028BC00AB7904684B432344DA73AB79006811FB03F10144002008740720A9790BF09BFFDF
:2028DC0087F00400B9E038060FD500210023069105910491039302910191009101223B20D6
:2028FC0015F0F8F887F08000A7E0F8045DD55E4930680C680D3015F0E9F8002844D1306870
:20291C00C11D0D3015F0CEF83EE0606D4178480704F13E0526D5287802281EBF03286878DD
:20293C00012830D16978306804F1380215F076F98146B9F1FF0F15D0306818FB09F9484498
:20295C000D3015F0C3F868B930684844C11D0D3015F0A8F830684844C11D062204F1380002
:20297C0014F0E0F82878022818BF03280BD130680D3015F0ABF830B93068C11D062204F1BE
:20299C00300014F0CFF82468002CBED13748DAF8042000784FF4805111F0ACF810B18E20C4
:2029BC0015F07CF887F4805047E0B80505D514F007FB2F4901200860FEE7780504D512F035
:2029DC0096FA87F4806038E0780405D5812015F065F887F4804030E0B9042DD5254C20687C
:2029FC0010B1002012F084FE4FF0FF3020600020214C0DF05DFA216851F8202F68469047E1
:202A1C001E494A6B086BC96A24681D4B019200900293ADF810106B461A4A1B491B480392F6
:202A3C001B4A079225681B4AA8471B49086004F019FD87F4005000E0002009B0BDE8F08F1D
:202A5C00D50F0020A41F0020A81F0020480F0020680F0020880E0020D70F0020780E00201C
:202A7C004DE50110383400204C0F0020C70F00207C052043380F0020200F0020B020002070
:202A9C00AD6D0100BD6D0100F4240020280800201EFB0080EC0A00201C0F00202DE9F84FF5
:202ABC000546DFF81804DFF818640278002A84B04AD0052A58D0062A61D0072A18BF082A85
:202ADC0000F0DA800A2A00F0CB81112A02D0132A52D0E9E1DFF8EC331878002115F04AF8FC
:202AFC0004001EBF606D407810F00C0F2CD0216DC0064CBF886CC86E0622016801F1080524
:202B1C00A91C684614F00EF8287800F00F0105291AD16946C0F3801014F0D4FF002813D08F
:202B3C003168684614F0CAFF0546316804F1380014F0C4FF85420DD0606D4178C80604D4BD
:202B5C0040F2014014F0CAFFB4E1607B40F002006073AFE133681E2045435819062269466B
:202B7C00C01D13F0DFFFA5E114F0D5FB0028FAD1012014F08FFF9DE10CF00BFB9AE1DFF8A9
:202B9C004853286814F082FF0400F7D020790328F4D1207A00F00F01072938D1DFF82C033C
:202BBC0000684169497A4A1E11425ED0617A04F10A035A5C02F03F02252A56DBA17A8A0947
:202BDC00012A52D111F03F0F4FD0007C13F046FFE17ACA074CBF04F1110204F10B028B0786
:202BFC0048BF921D0B0748BF921CC90648BFD21C1621127852094A43B5498B180A31EB60A8
:202C1C008A5A428699898186DA89C2862DE000F00F00082829D1A17A880926D129B3AB4870
:202C3C000168087C13F01AFFE17A074688071CD5062201F001015143601800F10C01684674
:202C5C0013F070FF207AC009FF280ED0694614F039FF50B1306800F10D01684614F012FF38
:202C7C0018B90521384614F069FF2079032802D0002012F03DFD13E1DFF8589299F802001D
:202C9C000024FF2821D013F0E9FE804608F16C07786814F0FBFE029029460279032A01D069
:202CBC00080012D00298826813788DF8003003F0030001909DF80000830604D5012401980E
:202CDC0020B97868EDE00800F9D0F3E0557802F1020A24B31AF8010B7F4A136803902C20CA
:202CFC0098F806C010FB0CFC9C4401238CF80530002998F806C0136810FB0CFC9C44039B07
:202D1C0003F01F038CF81A3098F80630126810FB03F01044039AC2F38112C2761BD1019880
:202D3C00032808F2171B1BD0B5B1387868B108F1F400017801290FD1604A1178072904D05F
:202D5C00082904BFC078012806D13D2101208BF801108BF80000ADE060490A78012AFAD0E8
:202D7C0098F8940090B32D1FEDB29DF8001053462A4640460CF076FD00281EBF584908781C
:202D9C00002809D101203D218BF800008BF80110306814F073FE8DE05248016888470646E7
:202DBC0098F80610D9F804204FF4D07041435018002280F8412108F59E7001688079490833
:202DDC000DF0B2F848490A68304690470298002181600198032819D04448416909788A074F
:202DFC0009D541690878C1074CBFE81C28461AF80000387201E0812139722A460198C3B202
:202E1C0099F80200514606F001F821E09AF800001CB11B2804BF022D01251C2803D234492C
:202E3C000B5C9D4206D08BF802000721404614F07DFE0AE02148017808295146404602D1BB
:202E5C0014F03BFA01E000F073FA50460FF024FE786814F00FFE0299404614F007FE29E004
:202E7C00244C207830B3244D286814F00FFE08B3017903291ED1017A8A0611D5807AE178A5
:202E9C00C0F38112914202BF217900F01F00814206D1A078002801BF607800280121A170C6
:202EBC00286814F0E7FD05E0002012F021FC862014F05CFE05B0BDE8F08F00BFC80F0020C7
:202EDC00680F0020D50F0020BC0A0020540F0020E0070020780E002038340020D20F002098
:202EFC00C2340020A41F0020A81F0020889E0100209F0100CC330020AC0C00202DE9F04FA3
:202F1C00ADF12C0D03F0E0FAA54C4FF0000A4FF6FF7B04F12809A9F127000790A9F12600BA
:202F3C00089009F174000990606951464FF040424FF0FF3314F096FD071CF5D0504604909B
:202F5C0006A904AA05A80EF09DFE002840F034819DF814000DF1160112F05AF8002840F03B
:202F7C002881BDF81600ADF8140013F0ADF9BDF814000126102840F0198120789DF8181018
:202F9C00884240F01381049801885A468A4200F00D810178913900F0E3801F3900F0CC804E
:202FBC00203940F003818178E1B1491F03D0491E00F0A580FAE0BC49102004F077FEE188C5
:202FDC00C0B28B4504BF401EE080D9F80000642111F069FDA278B349102004F067FE6278DC
:202FFC00B049D8E04578002D40F0E08081798DF80810C1798DF80910017A8DF80CA08DF8EA
:20301C000BA08DF80A10C17A8DF80F10817AA74B8DF80E10407A02AD8DF80D002A681A60D4
:20303C006868586007989E4AB749B84B0090102004F03CFEC0B208B113F09EFC1C20B34D70
:20305C00B849009005F11C00019062785346102004F02CFEC0B208B113F08EFC1D200090DA
:20307C0005F17000AF49019062783346102004F01DFEC0B208B113F07FFC6278A84910200F
:20309C00922304F013FECDF800A0A44962781020534604F00BFEC0B208B113F06DFC089831
:2030BC002B4699497E4A00903833102004F0FEFDC0B208B113F060FC1C20009005F154001F
:2030DC0098490190A2785346102004F0EFFDC0B208B113F051FCA27891491020922304F057
:2030FC00E5FD504600908D49A2785346102004F0DDFDC0B2002859D013F03EFC56E0584651
:20311C00E08012F0E9FFD9F8000011F0B6F8D9F8040011F0B2F850460090804962785346E7
:20313C00102004F0C3FD504600907C49A2785346102004F0BBFD39E005466878162809D1B9
:20315C00304611F0EDFB28B9304612F0BBFA5646E5612BE0297905F1080014F07FFC25E0D5
:20317C0045780E3D02D0AD1E1CD01FE0818842F203028A421AD181680D78BDB9491C02A8B7
:20319C000A684968026002AD41602878624902AA00F0FD002870102004F088FD06E0C0462D
:2031BC00D81400200820514604F044FA049D1DB116B1049814F04DF8F80FFFF4B5AEA06975
:2031DC0014F048FC00287FF4AFAEA569284614F03DFC854208BF554602D0856811F01CFDD8
:2031FC00002DA846EBD02888401E61D0401E4DD01E3840F08580B8F80800E68805461030E7
:20321C0080B210F09DFE071C36D03E810999A7F80AA007F10E002A46BD810BF0D7F84248EA
:20323C005346554606780A935EB1394839898068001F30F8042F914202D0761EF9D100E08C
:20325C0005465DB12888834508D0AE7836B1700804D33648394612F03BFC01E001250A9571
:20327C000A9D2DB1012D06D1384611F0D5FC02E010F016FA054615B1022011F051FB206A5C
:20329C0009994FF4807213F085FF39E068680168B1F1004F32D0406811F0BEFC2DE0C046F9
:2032BC00D5590100650202109D3D0100071900202069400818D3E769B7B1E07807F108065D
:2032DC00401CE070134900967A883B79102004F0EDFCC6B2162E07D0042E05D0012011F0B5
:2032FC006FFF304612F0EEF92069800805D310F0D7F910B9022011F063FF686811F08CFC85
:20331C00404611F089FC5AE799010110601E00203C2000204D520110FD380210ED74011016
:20333C001DEF01103DB50000C10F0020482000202DE9F043044685B0084611F801CBDFF828
:20335C00A483DFF8A4332C22BCF1030F4FF0000904F5A47704F1660504F1F40600F0C38091
:20337C00BCF1070F00F08081BCF10F0F0CD0BCF1110F00F02481BCF11A0F00F03681BCF14A
:20339C001B0F00F061818EE1707A820703D40F2184F8191159E008784A7800EB02233B8040
:2033BC008878CA7800EB02237B8008794A7900EB0223BB808879CA7900EB0223FB80087AC4
:2033DC0038724A7A887A02EB00237B81C87A0A7B00EB0223BB81487B8A7B00EB0223FB81EE
:2033FC00C87B0A7C00EB02233B82487C8A7C00EB02237B82C87C0A7D00EB0223BB82487D67
:20341C00897D00EB0122B948FA8201788A0658BF4FF01A0913D504F5AA7004907989039158
:20343C00387A029021890191F8880090BB887A883988204614F006FBC8B14FF01E09707AA6
:20345C00410706D40F2084F81901204614F0F6FAF0E04A460F21204614F0ECFAF88800901F
:20347C00BB887A88A17948460FF0F0F9E9E004F1860079888180BA88C2800222F98801816A
:20349C000270A0F80290A18EC91DE983628E8188B1EB520F02BFC188A28E914202BF0089A6
:2034BC00E18EB0EB111F1CD0287C012804BF687C0F2809D0687D00281CBF687C1A2803D065
:2034DC000F21A976FE2176E0FC21204614F02EFBF8880090BB887A883988A07914F0A6FA89
:2034FC00AFE0102167E0707AC20709D431781A200129707002D1FF220D213BE00D215AE087
:20351C0085F8009085F8069001233371082204F1B00014F087FA0146022204F1B80014F037
:20353C0081FA04F1A80801460822404614F07AFA07460821404614F071FA04F19C080422B6
:20355C003946404614F06EFA0421404614F066FA04F1A00014F05EFA04F1980014F056FAFD
:20357C006348018841F0800101803078012805D1FF220421204614F045FA62E06E7C0F2EC9
:20359C0018BF142E04D00E2E1CBF0C2E1A2E11D12F7C204614F032FA0421204614F0C6FA17
:2035BC00012F05D11A2EAE7614BFFD21FB2102E0314600E00421204614F0B8FA41E00E784F
:2035DC003E761A2E497879766DD11868A679411C564301F806901968A37912FB03F20A44D4
:2035FC0082F80490A179787E56E0A77918680E785743074406F01F0117F8210FB60938B153
:20361C007878F040C00703D594F89601042805D120221A21204614F00DFA12E0F970A17947
:20363C00186812FB01F28118204681F82360002113F073FE28B998F800004FF4804108F0F1
:20365C002BFF4FF0010932E0A179186851430144C88808B981F80190A179186812FB01F2A1
:20367C00811881F80490ECE709780F2917D01A2919D1A1791868514301441A2081F8019031
:20369C00A1791B6812FB01F2991881F80490F17A01F0FB01F172A1790BF004FED1E7717A3E
:2036BC0001F0FD0171720146204614F0A3F9687C1A2812D1A87C17281CBF1028FC280CD14F
:2036DC002E7C204614F09AF9012E03BF1A20A876FB211A21204614F029FA484605B0BDE812
:2036FC00F08300BFC70F002038340020200E00209C0F00202DE9F84FDFF8A4030278112A51
:20371C0003D0122A00F0C581C7E1DFF898331878002114F02FFA05000AD1002011F0E8FF38
:20373C00002011F0E5FFBDE8F24FFF2014F01EBA05F14C0A9AF8000008B90121E972401C0F
:20375C00DAF808108AF800004A78D106DCD4E97DDAF80470C2B28A424FF00008D4D305F1C8
:20377C00280407F1900907F17306C34640F08C80A87F7075E97FB175DAF8082052789307C2
:20379C0010D5EA7FD30604D5C01E707501F0EF01B175C7F874B086F800800022B17D01F021
:2037BC00FE0171E1910608D4E08B00B1E07E3076E08B00B1206AC9F80000DAF8080041780F
:2037DC00CA070DD5E08B00281CBF206A002807D0C9F80000A17EE08B814238BF084630762A
:2037FC00E87FC1060CD5B86B217800EB8100B863A98CA63100EB810078670220307003E05F
:20381C00C7F874B086F80080DAF80800417811F0030F22D1007813F07CFD5FEA00081CD0E1
:20383C0098F8B000032809D1E87F810615D440F02000E877B07D40F020000DE068B9E87FAF
:20385C0081060AD500F0DF00E877707DA0F112017175B07D00F0DF00B075E97F002201F0A5
:20387C00FC01284608F0EAF9B8F1000F3DD0E87F81063AD598F8B000022836D141462846BE
:20389C00BDE8F44F13F04DBDE87F81060AD500F0DF00E877707DA0F112017175B07D00F088
:2038BC00DF00B075DAF808004178C8071ED5717D891E717501F03F01B07D00F0F700B075AE
:2038DC008207717504D4891D717540F00200B075B07D410605D5727D511E717500F0BF0061
:2038FC00B075C9F800B086F81880D6E09AF80020E87D121AD2B28907009240F18280012A03
:20391C0007F140083FD1B86BA98C00EB8100B863A87F00F03F00A8777075E97FB175DAF8A2
:20393C00082053785A0704D5801F707501F0FD01B1750023707DE17E00F03F00421898F81D
:20395C000000521CC0F3800192B200F0030014F0E1F800F59B70A8841E21A88C90FBF1F189
:20397C008AB2B17D01F0FE01284608F067F986F800B0E08B00B1E07E3076E08B00B1206A17
:20399C00C9F8000089E0B86BA98C022A00EB8100B86326D1E87FC10706D5707D811F717562
:2039BC00B07D00F0FE00B0750023707DE17E00F03F00421898F80000521CC0F3800192B23D
:2039DC0000F0030014F0A6F800F59B70A8840022B17D01F0FE01284608F030F9607FA8F8BC
:2039FC001A00617F0098491C081AC0B201281CDDAA8CB96BA63201EB8201796702213170B9
:203A1C0014E0B86BA98C00EB8100B863617F0098081AE97FCA06C0B207D5AA8CB96BA63265
:203A3C0001EB8201796702213170B0B3D9F80020E37E95F81F80A97F1A44C9F8002028F0F7
:203A5C000108DAF808205278530748BF28F00208920748BF28F00808012807D1207F3076EC
:203A7C00C7F874B028F0100886F800B001F0C004404614F053F800F03F002043707586F86A
:203A9C001680002208F0FC012846BDE8F84F08F0D5B8BDE8F14F0CF0CABCBDE8F18F00BF33
:203ABC00C80F0020D50F00202DE9F041FF2806462AD113F0AFFA10F01F0F22D0042010F04A
:203ADC00BFFE08B1042016E0012010F0B9FE08B1012010E0022010F0B3FE08B102200AE000
:203AFC00102010F0ADFE08B1102004E0082010F0A7FE20B10820BDE8F04111F043B911F068
:203B1C00F7FD0020BDE8F08111F03CF98046012ED8F8044046F2A81740F6C4100BD0022E14
:203B3C005DD0042E00F0AB80082E00F0F380102E00F04281E5E7DFF8000301688F8810200F
:203B5C0010F07EFEE8B1102011F01CF905466E6846B9022010F074FE20B1022011F012F93B
:203B7C0005466E68012010F06BFE40B1B068A0EB8701A06812F010FA08B94046C2E72846F0
:203B9C00C0E7022010F05CFE90B1022011F0FAF806460120756810F053FE38B1A868A0EB71
:203BBC008701A06812F0F8F90028E6D03046A9E7042010F045FE08B10420E7E7082010F048
:203BDC003FFE30B1082011F0DDF84168002999D1D3E7012010F034FE002893D0CDE7974945
:203BFC000A689749D3690A7802EB82029E18F7884743042010F024FE07F5166788B104204D
:203C1C0011F0C0F806460220756810F019FE0028CCD0A868C11BA06812F0BEF90028C5D13E
:203C3C00ABE7082010F00CFED8B1082011F0AAF805466E6846B9012010F002FE20B101201D
:203C5C0011F0A0F805466E68022010F0F9FD002895D0B068C11BA06812F09EF900288ED1CD
:203C7C008BE7012010F0ECFD08B10120C8E7102010F0E6FD08B11020A5E70220AAE771492E
:203C9C000A68714953690A7803EB0216B7894743082010F0D5FD07F5166780B1082011F001
:203CBC0071F805466E6846B9012010F0C9FD20B1012011F067F805466E680420C5E7012014
:203CDC0010F0BEFD28B1012011F05CF8064604209AE7102010F0B4FD80B1102011F052F840
:203CFC0005466E6846B9022010F0AAFD20B1022011F048F805466E680420A6E7022010F097
:203D1C009FFD28B1022011F03DF8064604207BE704205FE713F0F9FA08B1D0F890700420E3
:203D3C0010F08EFD58B1042011F02CF806460820756810F085FD002818BF002C68E701201C
:203D5C0010F07EFD60B1012011F01CF80646082010F076FD002818BF002C3FF427AF0CE777
:203D7C00102010F06DFDA8B1102011F00BF805466E6846B9022010F063FD20B1022011F06A
:203D9C0001F805466E68082010F05AFD002818BF002C5DE7022010F053FD58B1022010F062
:203DBC00F1FF06460820756810F04AFD002818BF002C2DE708200DE7032013F0A8FA08B183
:203DDC00D0F89870022010F03BFD50B1022010F0D9FF0646102010F033FD002818BF002CCB
:203DFC00BBE7042010F02CFD28B1042010F0CAFF0646102008E7082010F022FD80B10820E7
:203E1C0010F0C0FF05466E6846B9012010F018FD20B1012010F0B6FF05466E68102014E77E
:203E3C00012010F00DFD28B1012010F0ABFF06461020E9E61020CDE64C340020500F00204A
:203E5C00D80F0020540F0020D90F00202DE9FE4F0422FF21684612F05BFEDFF85863B07848
:203E7C000024FF2800F0A38112F0F8FD0546B07812F076FF019005F217100178012908BFCD
:203E9C00417800F0DF8005F1740005F59279817B022904BF05F174018C7395F892010228F1
:203EBC0005F1740008BF85F89241017F022904BF05F174010C77B9F80E1019B199F80C00D3
:203EDC0008F0EAFA6889BC4E288105F58D77B27AF079317B80184118F07A0818717B00EBB5
:203EFC00010AB8883988401CB88051447888398010187880D9F80000F0B1B04995F806E0BA
:203F1C000B681C2103F10E0C11FB0EFE0E331CF80E1030F811C0D44420F811C01C2195F878
:203F3C0006C011FB0CFC13F80C3000EB4300B0F84A105218A0F84A2011F0CAF8F079DFF8A5
:203F5C0080B2002804BFF07A002805D1307B002804BF707B00282FD00199CC812A89E8890D
:203F7C002C748218287FAA81012804BF688CE883A979012207200AF03EFCA046707878B137
:203F9C00012105F1740229779078002802BF05F17401887B002803D1087F08B9688CE883D5
:203FBC0099F81400002856D0022804BFF07A00284CD189F814404EE0A979002207200AF0EE
:203FDC001AFCEC83B07A40B1297F2C7401294FF0010825D1688CE88322E0F888401CF880C0
:203FFC004FF00208287CD8B1DBF80010AB7995F82EC001F114026969490040F6C4105B0124
:20401C0010FB0C1101F5F661D150A879DBF8001001EB4010C17C01F0F00141F00401C17424
:20403C00A8892989814206D08842A7D2081A41F2AB029042A2DA287C08B1052901D00821D0
:20405C0000E03E21284613F079FDB0E0707A10B1022189F81410F07BC1070DD529683069DC
:20407C00C86000F59070C860AA79DBF8000000F1140152018C5014E0DBF80010AB7901F1C7
:20409C0014025B01D058C9F810004C48AB7901681C2001F1080243432968D058C860EC836A
:2040BC002C77484A50690078810702D5B07B802800D1812005F17409434989F8000091F8D1
:2040DC00200018B12946012013F01DF9284609F04FF802281CD199F80700022805DB6A461B
:2040FC003A4928460DF0AEFC0446284613F07EFC01285CD020000DD02246694628460EF002
:20411C00C9F838B9284609F033F8012802D14EE001284CD00121284613F064FC284613F06C
:20413C005DFCFEF743F8012841D028460EF060FC00F0F4F9264E3068002838D0B088AA7964
:20415C0090421CBF4FF6FD71884230D12148007B12F06EFE04002AD084F80080A8791E4944
:20417C0060800A68A879115C217105F5C9721079607199F90010A171A4F808A07888608149
:20419C0012F016FE050005D1FF204FF0FF312073216109E02878207313F01CFC0146A868E1
:2041BC0013F014FC80082061204631688847BDE8F78F00BF780E0020980C0020980E0020DF
:2041DC009C0E0020889E01007C31002064220020800E002004250020503400202DE9F84F67
:2041FC0005004ED0BD480078092818BF0A2804D00B281CBF0C280D2801D121206CE1A878FE
:20421C00002113F0B7FC040008BF4220F6D0DFF8D082A978B14ADFF8CCA288F80010107816
:20423C0010B9A8788AF8000004F14806F068417801F01201022902BF706900280C2012D0A4
:20425C00607AF0B1A07B012804D1B5F8030008B1812816DA6878402813DA204613F0B2FB61
:20427C00B06808B9072037E1B561287801281FD1A07B00281CBF0128042819D19A48007884
:20429C0008B9122028E199494A78824208BF0920F8D0F068417848070AD504F122018020EF
:2042BC004A7F04F1380105F0EDFE08B10B2013E1687808B911200FE12878DFF834928D4F58
:2042DC00DFF834B2012840F0AF80207A0021012821734FF00A0A11D19BF80000402110F0DC
:2042FC003BFBB5F803000AFB00F1402013F066FB0100E0D1B16968794871ECE0012020721D
:20431C00E172617308F0C0FD6060386880477B4A01461068274602E07A6842600068002897
:20433C00FAD10846D9F800108847796874484861002198F8000012F0DEFF98F800100122FF
:20435C0011200AF058FAF0684178C80605D5384601F084FC010025D0BEE0002078840EF06E
:20437C001DFB87F82100F068007812F0D2FF04001CBF94F8B000002807D0F87F40F02000E5
:20439C00F877787D40F0180078753846FDF740FA0100E1D134B194F8B000012804BF38467E
:2043BC0012F0BDFFF0684178C8071CD507F14204A18800291CBF3068002814D022788A42DD
:2043DC0011D20F2013F0F6FA68B1F06801788DF80010A088ADF801000F2021788DF803100F
:2043FC00694613F0E3FA3D4C2078002873D14549087800281EBFF068417811F0030F03D07B
:20441C004148006813F0CEFA1120207001213972B5F803000AFB00F1402013F0CFFA010063
:20443C005AD100F07BF856E0207A002854D038688047054698F80000012112F05CFF9BF862
:20445C000000402110F088FA0020304920720A6898F8006011460B68187A002802BF586DC6
:20447C000378B34220D0C9689142F4D198F800009AF80010884224D112F09AFC61688842DB
:20449C001FD110F025FE40F2014013F027FB20492048086001219BF8000007F0FDFFD9F8A3
:2044BC0000102846884716E01B4E30780128DDDD084610F071F912F0ABFC3078411E3170A0
:2044DC00D4E7204613F06AFAD9F800102846884720460FF087FF0020BDE8F28FC80F0020F2
:2044FC00D60F0020D50F0020D40F0020780E0020A81F0020A41F0020C70F00204C0F0020B3
:20451C00597E0000880E00206C0F00204C340020480F0020754B0000BF3400202DE9FE4F0A
:20453C00C24D6F681FB9BDE8F74F13F033BA3878DFF8FCB2BF4EDFF80083012818BF022800
:20455C000AD004281CBF0828102805D0402818BF802800F0A38061E112F062FD0028FAD092
:20457C00012010F06DF920B1012010F00BFC10F02FF9082010F064F920B1082010F002FCFB
:20459C0010F026F93878FFF78FFA814698F80100D9F8044000284CD005F052FC12F05EFA63
:2045BC008246DAF80000009001464F68B4B1484606F04EFE022811D099F80010012902D0DA
:2045DC00082965D02AE128B913F004FA00F5E8504C30A0600120A87011215CE0009801780B
:2045FC0080290BD10820954930700A787869012A1ABFDBF824100978012114E007203070A8
:20461C009AF8060012F0ACFB0446207BC10748BF9AF8060063D489480178786901291CBF8A
:20463C00DBF824104978C1729AF8060088F80200BBE0B9F1000F11D099F800004F4509D115
:20465C00012818BF082801D134BBECE0002011F04FF821E0012802D0082817D0DEE0002C1C
:20467C00F3D013F0B7F90146A06801F5C241A83111F092FC28B913F0ADF900F5E8504C30C5
:20469C00A060112030700121A97005E0002CDCD00820A870122131704846BBE098F8010067
:2046BC00002800F0848005F0CBFB12F0D7F98146D9F800000090D0F804A098F8020012F00D
:2046DC00CDF901903878402813D199F8060012F047FB0446207BC1070BD599F8060012F06A
:2046FC00BDF9052113F02AFA207B00F0FE00207399E012F08FFC10F01F0F32D0012010F028
:20471C009FF820B1012010F03DFB10F061F8082010F096F820B1082010F034FB10F058F835
:20473C00A878FFF7C1F907467C68D4B1009906F08FFD022815D03978012902D008290BD0F4
:20475C000CE028B913F046F900F5E8504C30A06011203070012156E0082057E0002010F0DD
:20477C00C7FF0198484520D0009934480A78802A0BD10821317000780128DAF814001ABFFA
:20479C00DBF82410097801210AE00722327000780128DAF814000EBF0121DBF82410497860
:2047BC00C17299F8060088F80200009832E012F031FC10F01F0F36D0012010F041F820B159
:2047DC00012010F0DFFA10F003F8082010F038F820B1082010F0D6FA0FF0FAFFA878FFF799
:2047FC0063F9074638787C68012802D008280CD019E0C4B113F0EEF800F5E8504C30A06059
:20481C00012111203070A97003E064B1A870122131703846BDE8FE4F06F092BDBDE8FE4FE5
:20483C00002010F065BFBDE8F78F00BFE4330020889E0100C80F0020780E0020CC0F002038
:20485C002DE9F843A04CA149A14E20700A22002008600D239F484FF40871027043808180D9
:20487C0084B09D4A9D48106037789D480770FF2F7178417008BFFF29B2788270F378C37030
:20489C00357905717679467114D1FF2A08BFFF2B10D1FF2D08BFFF2E0CD192490A78027086
:2048BC004B7843708A788270CB78C3700A790271497941718C4902788C4D8D4E8D4F0A7039
:2048DC0043784B7082788A70C378CB7002790A714079894A4871FF2028706870A870E870A2
:2048FC0028716871002085490880F06B8449407808708449F06B0078087013888248834913
:20491C000380F06BC06C08608149F06B90F83C0008708049F06B90F83D0008707E49F06B25
:20493C0090F860000870F06B406901797B484A1E0270F06B7A49C0783870F06B8069086036
:20495C0008B910F0D5FEF06B7649C069086008B910F0CEFEF06B416D73480C2212F0E2F8A1
:20497C0013F014F8F06B7149006A086008B910F0BFFEF06BDFF8B881406AC8F8000008B911
:20499C0010F0B6FEF06B6B49806A086008B910F0AFFEF06B6849C06D00283CD001220A7569
:2049BC00F06BC06D02681378C3F3400028B1C3F3C00000280CBF012002204875002088601E
:2049DC00C8600861F06BC06D426890780870F06BC06D4268D0784870F06BC06D4268137889
:2049FC008B70F06BC06D42685078C870F06BC06D426810790871F06BC06D42685079487186
:204A1C00F06BC06D426890798871F06BC06D4268D079C87101E000220A7500F0DFFE072814
:204A3C000AD105F0BFFB20784FF4804107F034FD002010F05DFE43E04048016888478146E7
:204A5C000BF0EEFED8F8000001688847684612F0FFF9D8F8002004208DF80000694652F811
:204A7C00043F00209847364908600EF0AFF9F068344A01883878344B0143118048461968D9
:204A9C0088470C21314812F050FC284612F07AFF12F074FF2E4800214FF6FF720160828029
:204ABC00F06B90F858102B48006812F051F90121FF2012F020FC20784FF4005107F0ECFCFE
:204ADC0005B0BDE8F08300BFC70F0020380F0020D04F0050700E00203C0F0020B63F005014
:204AFC00400E0020E8120050500E0020480E0020889E0100C40F0020962500209E0F00202C
:204B1C00C60F0020D40F0020AE34002040340020C0340020C1340020BE340020CB0F0020B6
:204B3C00200F0020240F0020D8330020280F00202C0F0020300F002044330020A41F002001
:204B5C0044340020A00F0020A81F0020FC0D0020800E0020583400202DE9F84FDFF8B492EE
:204B7C0099F80000002113F005F8040004F1500602D110F0BDFD3EE1207ADFF89CA248B9BC
:204B9C009AF8001011B1204612F008FF20460FF029FC1DE0217BA14D491C217330694079CA
:204BBC00D0B1C9B2814217D1287840210FF0D4FE002121729AF8000010B1204612F0EEFE05
:204BDC0020460FF00FFCFF224321204612F0AAFFBDE8F14FFFF7A2BC04F14508002088F898
:204BFC00070012F0B4FA7168D1F80320D4F810C022F07F4240F6C41303FB02CC4FF00B0E7D
:204C1C0090FBFEFE0B2202FB1E00376880B24FF47A6148431CFA80F0B86033689868206175
:204C3C009AF8000002280BDB7D490868C268006811680069096911F0AFF908B10CF028FA1A
:204C5C0070684178CA0604F122071BD5A07B01280CD1002121729AF8000010B1204612F039
:204C7C009DFE2878022107F017FCAFE0306890F8631001F0E00141F0860180F86310694967
:204C9C004166A3E0356805F1020A0021AAF8001005F1730B407A0EF061FE25302076207E48
:204CBC008AF80C0020460AF095FC207D8BF815000020617D8BF816108BF81800C5F8900095
:204CDC003888401C388080B20DF068FE84F821007068417811F0030F43D1007812F019FB6C
:204CFC0000283ED000F1B0010878032806D1E27F930603D442F02002E27732E001280ED1A6
:204D1C00E07F40F02000E077607D40F0180060752046FCF77DFD204612F001FB21E008B186
:204D3C000879F0B1E07F00F0DF00E077B068002804BFF068002811D17068007D832818BF74
:204D5C0003280BD0607DC10644BF00F0EF006075607D010744BF00F0F70060752046FCF7D9
:204D7C0057FD617D002201F0FE01204606F066FF0020AAF8300005F13E0094F8211001F03E
:204D9C003F010170628BA96801EB8201A9630021018298F80020828371684A78910709D563
:204DBC00BA887A80A17F01F03F0141F08001A17701218183E07FC10608D57988A86BA6316C
:204DDC0000EB8100686702218BF80010164A107888B1387F022818BF03280CD1134F3868E3
:204DFC000D3012F073FE30B93868C11D062204F1300011F097FEFFF791FB4CB17068017EC7
:204E1C00480605D54946BDE8F44F032012F0CEBDBDE8F18FD50F0020BF340020C70F0020F5
:204E3C004C34002000204E00880E0020680F0020F8B5144600254FF48067A04EC21B84B0A6
:204E5C0006F1880332D0921E37D0521E45D0521E51D0521E56D0521E5AD0521E00F077805E
:204E7C00921E00F07980D21E00F0A980521E00F0B480921E00F0BD80521E00F07880521E3B
:204E9C0000F0BE80521E00F0CC80521E00F0CF80521E44D0521E53D0D21E00F0DC80921E6A
:204EBC0000F0E080521E00F0EB80FAE0012915D12078022812DC7070FDE001290ED12078C3
:204EDC0002280FDA012804BFF178032900F0F2800028B070F0D13574DEE0012940F0DF8097
:204EFC002078052880F2DB800328F07009D10020B0703074D0E0012962D12078022867DAAB
:204F1C003073D8E010295BD1102221466C4814E0012955D1207802285ADA3071CBE00129B8
:204F3C004ED12078022853DA00287071F6D001207074602206F12801184611F0F3FDBAE0E8
:204F5C0001293DD12078022842DAB072B3E0012936D120787073AEE0002931D112F022FEE3
:204F7C0010B9FBF7F0F91DE001203075A3E0072926D10622611C02A811F0D0FB0095002331
:204F9C00217801AA02A808F0ABF9B0B9B07A10B912F008FE10B1B07A012808D19DF8040081
:204FBC00FBF7E2F90546502011F0B6F81EE0316A9DF80420012088547DE034257BE0012914
:204FDC006DD1F17B2078022903D0C11F0A2902D365E0102863D1B0736DE001295FD1F17CA5
:204FFC002078F074002908BF012864D1FBF757F961E0012953D12078032850DCB0745AE02D
:20501C0001294CD12078022849DC002847D0F073022803BF1020B0730120002012F0AAFC7C
:20503C0049E001293BD1207811F0B0F943E07079002834D1602908D1002C30D06022214603
:20505C00184611F06FFD012003E0012927D134B3207870742FE0012921D104B32078194904
:20507C00087028E0D9B912F09DFD30B9FBF70FFA0546502011F050F81DE0012070751AE081
:20509C0001290CD12178022909DA012904BFB07800280FD03174084611F092FE0BE018257E
:2050BC0009E00F2806DA022904D121880EF028FE054600E00225284605B0F0BD481D002060
:2050DC00D0310020C53400202DE9F04F0746F88916468A46ADF1440DC01D80B205460BF0E7
:2050FC005BFD8F4CFF280BD1284604F03BFF854204DD641C207800B905200EE1012000E034
:20511C0000206178D9B916B1022E18D1B8B1387AFE88BD888DF82C000023009309AAADF863
:20513C002A60E18E94F83300ADF82850032305F09BFE9DF834003874BDF83060BE81BD898B
:20515C0055B3FE8946B3AD1B4FF000091FFA85F84D463A7C761B202ED4BFB6B22026E06854
:20517C0008EB050189B2334601EB423101AA11F0E9FF0AEB050101A8324610F0BBFD58B98E
:20519C00AD19FE89ADB2AE42E3DCB9F1010F1CBF4846B88140F0BA8094F83310E58EE06848
:2051BC0001AA04238846490311F0CCFF019800F0FF007E2806D140467C210FF041FF01981B
:2051DC0000F0FF007C2840F0A580F88942F20102C11D8EB2A9198A4240F39A80F9883A7AE5
:2051FC00C1F301238DF83910B98843EA82038DF838308A1007468DF83A200423C0F38512D6
:20521C0001F0030142EA81128DF83B2010FB03F1FA1D01F0FC017B1990B28DF83C101FFA1A
:20523C0083FB0D282BDB50463946002211F0D4FE024605210EA811F0CFFE9DF83C103B463B
:20525C0000F03F07524641EAA011B8008DF83C1040F0020096278DF83D0029468DF83E70AC
:20527C0040460EF0D9F8074659460EAA0723404667700EF0D1F8384360704DD135E004F158
:20529C00240051463A4609F0A1F80EA90A68381900F124094846097902607B1D01710022EF
:2052BC0004F1240099B211F097FE9DF83C10962300F03F078DF83E3041EAA011B8008DF8FC
:2052DC003C10334640F002000EAF49468DF83D003A68B8790A60BA88887140468A8004F1B0
:2052FC00240229460EF098F86070E18EAD194FEA8807AAB28919E18607EBC8010919A1F8C7
:20531C004C2048B1404659460DF00EFF607803E0052000E001206070C0B211B0BDE8F08FD5
:20533C00142100202DE9FE4F012001908A4D8B48DFF82CA20278112A02D0122A06D006E118
:20535C00884E3078002112F015FC040000F0F1808548DFF818B2DFF81882CAF80000012256
:20537C003178112009F047FA216D606D814A009041F608034078C00640F1B480084641F2A1
:20539C000447B0F802C0BC451CBFB0F81AE0BE454FF4A0590AD0468EBE421CBF41F20A4772
:2053BC00BC4503D0BE4518BFBE4203D12F80CAF800B036E04FF0000C40F2FE37182606FB27
:2053DC000CFE8644BEF802602E80012EF6D0002E1CBFB61E012E43D9F61B17D04FF48067D8
:2053FC00F61B4ED04FF44067F61B39D0B61E012E36D9361F34D040F2FA37F61B65D0761EB6
:20541C0057D0F61E3DD0361F3BD063E0B0F800E040F60106B64523D10CF1010CBCF1020F09
:20543C00CCDDDAF80010594510D1816C0B680A6819790832032904BF90F86C10012906D1B4
:20545C00D2F80E1000291CBF118B002979D1A5F80090CAF80080816C08680021017170E086
:20547C00A17B01291CBF0429A5F80090CAF80080117D0029D5D09168491C002391601382F0
:20549C00CFE7A17B012906BF41F20244AEF80240AEF802902988994214D1D368118A5B1CD8
:2054BC00D360491C538A11828CB2A3420AD2518208E0009A5378DA064CBF8A6CCA6E116817
:2054DC0000220A71CAF80080ABE7002010F010F9832003E0002010F00BF9842012F046FB85
:2054FC00012037E0488E288041F20444001B01D0801F02D1CAF800B023E0488898420BD106
:20551C00D168108A491CD160401C518A108283B2994208D2508206E0107D20B19068401CE9
:20553C0000219060118241F206402880CAF8008007E011F0EAFE60B1C0880F492880CAF85D
:20555C00001001210D4A107806F0A6FF01E0002001900198BDE8FE8F9A0F0020C80F002066
:20557C00480F0020D50F0020756B021071110000754B0000443300207FEF0000C70F002065
:20559C002DE9F0470D4629048F4EDFF8408240F1F1808F4F38780BF0B3F9040018D0217850
:2055BC000120B02917D0B12908D0C22900F0B580D02904BF2046FBF721FAD1E0207920B9DA
:2055DC002289E1886088FAF770FD204610F050FE85F40040F5E02179387A012910D009298B
:2055FC004DD01E2900F08D807D2908BF002806D16088FBF78FF901466088FBF748F986E098
:20561C000028FCD1207AB4F80290082835D14846FBF780F902280FD003282ED100220421F8
:20563C004846FBF738F80246B86900281CBF4368002B22D004211EE0002210214846FBF774
:20565C002AF88246484612F0E5FA60B198F8001039B9811D4079012200F0010012F086F946
:20567C0001E001203070B86900281CBF4368002B03D05246052148469847608805E000287F
:20569C0045D1617860881A2902D1FBF7DFF83EE0FBF740F9022819D0032838D12089668811
:2056BC00012804BF6089032806D1E068827804213046FAF7F0FF00E01820B96900291CBFFC
:2056DC004B68002B23D00246042117E0218966880120012904BF6189032907D1E268917892
:2056FC0021B9012210213046FAF7D5FFB96900291CBF4B68002B0AD0024605213046984784
:20571C0005E0787A18B9608800210AF0A1FA217904F1080012F0A2F957E7A07810BB0121B0
:20573C0079742022E11C07F1880011F0FBF9202204F1230107F1A80011F0F4F9202204F18C
:20575C00430107F1C80011F0EDF9B86900281CBF4368002B06D0627806210020984701E091
:20577C000028D9D11B480078FF2802D0214603F03DF92DE7690716D5174A106880B1FBF76C
:20579C00D3F804000CD0E07A50B90121E1726268A17A2089FAF7C7FE606808B111F038FB71
:2057BC0085F004000DE028070AD53178012902BF98F80000002808F053F985F0080000E06C
:2057DC000020BDE8F08700BFC6340020AA0F0020481D00208E2600206034002038B57B4DFD
:2057FC00687911F01DFB7A49002808606ED00022026002730868C2610262A87911F010FBE5
:20581C0074490028086061D000220260C27200200A681074052308684374002209684A6193
:20583C00E87A11F0FDFA6C49002808604ED06B4C21782878491D10FB01F080B211F0F0FA20
:20585C0067490028886041D02078002874D0698811FB00F080B211F0E3FA624A00285060D6
:20587C0034D061482278017811FB02F080B211F0D7FA5E490028086028D000250AE0E8B272
:20589C0011F06EFA00214180816001800223037101736D1C2078E9B28142F0D311F0C0FA35
:2058BC0053490028086011D02078400011F0B8FA50490028086009D020781C2110FB01F061
:2058DC0080B211F0ADFA4C4A0028106076D02078400111F0A5FA4949002808606ED02078ED
:2058FC00000111F09DFA46490028086066D02078000111F095FA4349002808605ED0207893
:20591C00302110FB01F080B211F08AFA3E4A0028106053D020782C2110FB01F080B211F010
:20593C007FFA3A4A0028106048D0207811F078FA37490028086041D0364C374D2178287833
:20595C0000EB4100C000103080B211F069FA33490028086032D000F1080141602878227886
:20597C0000EB4200C000103080B211F059FA2C49086018B300F1080141601E212078401CE2
:20599C0010FB01F080B211F04BFA264A1060A8B1082011F045FA244C206078B1062011F096
:2059BC003FFA216808602168086838B100204860062011F035FA1D49086008B9072032BDFC
:2059DC0011F095FC00B1002032BD00BF04250020500F0020540F0020440F0020D40F0020D9
:2059FC00E4330020780E00208A2600203C340020340F002048340020980E00209C0E0020BF
:205A1C00A00E0020A40E0020A80E00203834002050340020C1340020C03400206C0F002000
:205A3C00700F0020680F002058340020400F00202DE9FE4FDFF8FCB19BF800000024401EFD
:205A5C0003284FF001080AD9103840F0EE807A4B1878002112F08EF8040000F0E78014B9C8
:205A7C0000200FF045FE606D744F4178744DC806216D4CBF886CC86E0622016801F108067C
:205A9C00B11C01A811F04EF83078C0F380108DF800004FF01E0A32786A4E02F00F010329C6
:205ABC002CD101A912F00EF8002826D0606D807C012818BF032820D1296801A811F0FEFFE0
:205ADC00FF281AD01AFB00FA286810F80A205044411C386811F046FF317888420DD0286811
:205AFC005044C11D386801AA11F038FF28685044062201A9C01D11F015F889E002F00F004A
:205B1C000528FAD19DF800004FEA521901A911F0D9FF78B3296801A811F0D0FF616DFF288B
:205B3C0020D0897C022918BF03291AFB00FA0AD1286810F80A205044411C386811F012FFD7
:205B5C003178884264D028685044C11D386801AA11F004FF28685044062201A9C01D10F05E
:205B7C00E1FF25E04878C10659D5607B40F0020060731DE09BF80000022849D19DF8001016
:205B9C00286801AA12F04AF8FF2841D01AFB00FA286800EB0A014A7F012A05D00D30504403
:205BBC0011F094FF002833D040F2014011F096FF606D4178C80632D5234924488A78510675
:205BDC0006D55FEAC97203D4216D41F20A4202E0216D41F204424A804A834A860280206D07
:205BFC00816C0A6802F10801826C1068007903280ED1D1F80E0000281CBF088B002807D0D9
:205C1C0013481449144A01600121107806F044FC606D4178C80602D5216D886C01E0216DF5
:205C3C00C86E01680020087100E0A0464046BDE8FE8F00BFC80F0020D50F00206C0F00203D
:205C5C00680F0020C0340020C00C00209A0F0020480F002071110000C70F00202DE9FC4780
:205C7C000546002000900DB90FF042FD05F1500A6946DAF80060284605F022FE08B907206D
:205C9C00EBE00024DFF8D881DFF8D891DAF804104A7A1820604301233718A3401A4209D079
:205CBC00A97B39F811003880002118F80420BA73F97302E040F6010038800021798007F1D9
:205CDC0018007860387B00F0EF00387340F080003873A97B01290ED141F28830B860397B3C
:205CFC0001F0F00141F005013973787B00F0F00040F0020017E0002C0CBF0221002100F09C
:205D1C00F0000843387324B911F064FE00F57A6000E00020B860022C797B0CBF012002202A
:205D3C0001F0F00108437873641C06F14800386106F16801032C7961A8DBA87B002401287B
:205D5C0005D1766311F046FE00F57A6001E0B0687463286111F0DAFEB06443488169097828
:205D7C00CA07816909784CBF1F220F228B078169097848BF42F020024B078169087848BF33
:205D9C0042F04002010706F14C0148BF42F080020A704C70DAF80420907C00F0030005F14B
:205DBC003E024870137863F38200487052788C7062F3C3004870CC7040F010004870346551
:205DDC0005F13800F0657465A87B012818BF042819D0DAF8080038B1B0F803008870DAF8DB
:205DFC000820D2F805003065DAF80C0038B1B0F80300C870DAF80C20D2F8050070651B484C
:205E1C0002685068F06505F13000B065184AC87D184B00F0EF00C87540F08000C87500F0B1
:205E3C00F00040F00600C8757266187838B148780A7840F0400002F0FE0248700A700E4A64
:205E5C00937848785A064CBF40F0200000F0DF004870009805F0C2FC0020BDE8F68700BFCD
:205E7C00506E0210F46B0210889E01006C0F002000204E00880E0020C00C0020F8B57C4882
:205E9C007C4D01782A788A4200F0EF806A68002400E0641C8C4280F2E5804FF4D0736343B0
:205EBC00134418790028F4D1E0B210F0D7FD0121017100224271426200F161018471012213
:205EDC0000F168034A711A71012400221A609A6000F1900602814281047480F83920826150
:205EFC000277C283327000F592749A76227580271F739A730027FF22DF741A7600F20D1301
:205F1C00BE461F705F7083F802E0DF7000F589734FF01B0C1F805F8083F805E0377100F189
:205F3C00E7063770777000F1EC063760776086F80AE0377337727773B773F7731F815F81C0
:205F5C009F81DF8147F23053A3612760E7812777677700F5C6732273A27701279F7202273C
:205F7C00DF7283F80EE083F80CE0434F3F785F7383F806E084F80AE084F804E084F805E041
:205F9C0084F806E084F807E084F808E084F809E000F5B374394F84F800E083F800E03F8835
:205FBC00DFF8DCE0E780374F3F882781BEF800706780354F3F88A780A4F80AC04FF4A47793
:205FDC00E7812782A4F80CC0E7822783A4F812C0A4F814C06783A783E78327846784A784FC
:205FFC00A3F802C001271F7100240719641C042C87F87720F9DB0A704A708A70CA700446E0
:20601C001F220A710021214A50186718407887F8FD00491C0829F7DB1D48186100213174F5
:20603C00A07910F09DFE0646A0790BF05AFE19480178307C717300F0FC0030740022B069A3
:20605C00F28100F0004040F4853040F04000B0612878401C2870C0B2012804BFA079A870F4
:20607C002046F2BD00200FF043FB0020F2BD00BFD40F0020780E0020C50F00208C0F0020AC
:20609C008A0F0020980F0020960F0020C00C00204DE50110882600202DE9F0438049046824
:2060BC00804E824D0A68607D8846ADF1140D401E0B2800F28A80DFE800F09906097B60097B
:2060DC00350C14D11A142169886804E02069816809E02169C86809680DF0D2FD0EF0C8FCDE
:2060FC00DBE02069C168022200200A70D5E02169487C01280FD0C86809680DF0C1FD0546A7
:20611C0020690168C0684A6A406800218018401C09F01DFE04E0C868096810F06FFA05468B
:20613C00284642E020694FF080590168D9F80072CA68786D00920A6901924A6A5A4F0292C6
:20615C008B684A68844630463946E047002809F5007118BF6FF0050040F09F802069026884
:20617C000C689168206A0091D1680191516A0291CDF80C8053683A467DE02169087B012843
:20619C000FD0886809680DF07BFD05462069016880684A6A406800218018401C09F0D7FDCB
:2061BC0004E08868096810F029FA0546284695E7206941684968CA7F12F0070F05D109788B
:2061DC0031F07F0701D1C90902D24FF0FF3064E04FF080590368D9F80002596AC06D0091FB
:2061FC00CDF804805A68996A9B6845E04FF080592169D9F8002248680968526C4068496A7E
:20621C00904709F50076002818BF6FF0040044D1216930680A68C06A1169526A03462846F5
:20623C0098473068406A80470828FAD0306840688047062818BF6FF003002ED120690368FF
:20625C0037689968386A0091D9680191596A0291CDF80C80DA6A996A5B680DE020694FF016
:20627C0080590168D9F800724A6AF86D0092CDF804808B684A68314604462846A047D9F8FD
:20629C00B001006A014613208847D9F8B00100690146132088476FF01F0005B0BDE8F083FF
:2062BC009434002060620240C0620240006202402DE9F04F824C4FF0FF0A00254FF0100BE4
:2062DC00ADF1240D84F834A004F1300984F832A065E00C2015FB0096E068690306AA042365
:2062FC0010F030FF06F116079DF818009DF8193038700698F375C0F38541032903D09621D7
:20631C00B1EB106F38D1C0F30140F8703878FF2830D0FE282ED07E282CD007A80DF0CCFFCD
:20633C00E06869034FF088524FF4005310F00AFF64484FF4005650F8041D361FB6B2B1F1C8
:20635C00FF3F06F1885201D1032EF4D810684FF00108414600F0FF03FF2B18BF8846491CD6
:20637C00000A0529F6DB1060079810F077F94644FE8001E0A7F806B038787C280BD078286C
:20639C0009D0702804D0FE2808BF84F8325004E084F8345001E084F833506D1CEDB2E0786D
:2063BC00A84296DC94F83310FF2920D194F83420FF2A15D194F832200025FF2A18D0521C0C
:2063DC0092FBF0F14143521A91B28A0002EBC1024A44978B002F08BF84F832A003D00A46AF
:2063FC0084F833200225214691F8331000E00125FF2910D1002684F83360304606F006FBA7
:20641C006178084360707E2130460EF019FE2146E07891F8331094F83220FF2A14D1491C66
:20643C0091FBF0F24243891AC8B284F8320006F0EDFA61780843607094F83200FE210EF0D6
:20645C00FFFD204690F8331084F8311094F8332010462F46810001EBC0014944898BA570A8
:20647C00781EE18602D0401E23D025E0172923D91046C91F01AA89B207F022FE9DF80F00C0
:20649C00C00816D300200090BDF81220E18E94F833000323891AC91F01AA89B204F0E4FCFF
:2064BC0050B9BDF8101039B19DF814000CF03CFE02E0002003F056FD09B0BDE8F08FC046EE
:2064DC0014210020002000112DE9F047ADF1380D11F040FA0CF0B6FD071C00F0D48010F099
:2064FC0019F884467B4800213C3030F80C6F002E40F0C5804FF6F87606804760764C2170DC
:20651C000025856078686061604610F0DDF904F140073846294611F019FAA76104F0FFF808
:20653C0002A810F04EFB02A9284604F081F902A9A062012004F07CF9E0620DF0FDFA04A8AC
:20655C0010F034F901208DF810008DF81100A8468DF826808DF825808DF824804FF4E132E4
:20657C008DF827804B4B0A92494F089304A9079728460DF0A5FD206200287FD020212A466C
:20659C0010F003FE2546286A4FF4807205F19C0110F000FE4048424615234049009010208A
:2065BC0001F084FB3E4942461020134601F07EFB3C4910204FF0FF3201F078FB3A49102011
:2065DC004FF0FF3201F072FB1027DFF8E0903848384A0097132349460190384601F066FB94
:2065FC003E4800784FF0040A10FB0AF080B210F070FE314C0146A16091B1F01D0EF0A4FADF
:20661C002E49384604F11402009006230191494601F04CFBC0B218B904F10C0010F00AFA04
:20663C00383565604FF47A60208002200EF078F90EF0D8FA22490246384601F037FB0EF09C
:20665C00D1FA20490246384601F030FB1E493846FB2240F6480301F029FB1C49384601F09C
:20667C0025FB0EF0BFFA034652460220184900903846CDF8048001F019FB06E0FEE7491C37
:20669C000629FFF432AF10F06CFE0EB0BDE8F087CF71010095460100491E00204514010099
:2066BC001D3D0100A95B01004D43010081550100089D01009C1900203C200020989A0100CC
:2066DC00D96C02102D6D02100D520210397F011051930000AC1F0020D8140020C10F002096
:2066FC002DE9FE4F9B4615468946824610F0E9FD7B49019008680CAF504508BF48687B4C0F
:20671C006FF0010828B1B03010F0D2FA002840F0D6800FF05FFA061C00F0DB8004F5C470D0
:20673C0010F0C9FD0023B4F9B000C6F80C90401C86F832306FF31F30A4F8B000C6F808B0EE
:20675C00B4F8B00030866748C6F810A097E80C0020210027B8461940104006F1180383E8D7
:20677C000300424686F8332006F1200383E88001E8683064287C86F844002868706328794D
:20679C0086F83800A868F0636869B064A869F064287F86F85000687F86F851002F7C27B9C4
:2067BC00EF6817B1012086F844002F795FB999F80C0000F00F00022805D1012086F8380088
:2067DC00D9F808007063484608274568002D18BF002F70D100886FF30900B0F5305F18BF15
:2067FC00022506D196F83300082540F0100086F8330006F1180090E80C00414606F1180770
:20681C0045EA0200194387E80300D4F8D400824507D194F8D800410824BF00F0FE0084F824
:20683C00D80031480768002F39D004F19C000090D4F8A410D4F8A82004F194052B4630469A
:20685C00B84710F1030F10D0B6F93010B4F9B020914207D0B4F9B01001F6FF716FF31F318E
:20687C00A4F8B01010F1020F1BD010F1030F18D096F83300B6F9308040F0800086F8330027
:20689C0000278AF8F4702868864205D0F068007B00F00F0002281CD10AF020FA19E06FF04D
:2068BC000200B4F9B010804601F6FF716FF31F31A4F8B01005E07F1E2846FFB285E76FF0A6
:2068DC00020894F8D80040F0040084F8D800C4F8D4A0019811F012F94046BDE8FE8FC04613
:2068FC0094100020FFEFFF9FC0250020E00F00202DE9FE4F0D468246287AC10693461E46F4
:20691C004FF000090CD5584611F01CF8030000F0EA800A222946504698475FEA00094DD1A2
